{
  "contractName": "CIDLog",
  "abi": [
    {
      "anonymous": false,
      "inputs": [
        {
          "indexed": true,
          "internalType": "bytes32",
          "name": "logId",
          "type": "bytes32"
        },
        {
          "indexed": true,
          "internalType": "address",
          "name": "sender",
          "type": "address"
        },
        {
          "indexed": true,
          "internalType": "address",
          "name": "receiver",
          "type": "address"
        },
        {
          "indexed": false,
          "internalType": "uint256",
          "name": "cid1x",
          "type": "uint256"
        },
        {
          "indexed": false,
          "internalType": "uint256",
          "name": "cid1y",
          "type": "uint256"
        },
        {
          "indexed": false,
          "internalType": "bytes32",
          "name": "messageHash",
          "type": "bytes32"
        },
        {
          "indexed": false,
          "internalType": "uint256",
          "name": "timelock",
          "type": "uint256"
        }
      ],
      "name": "LogEntryNew",
      "type": "event"
    },
    {
      "anonymous": false,
      "inputs": [
        {
          "indexed": true,
          "internalType": "bytes32",
          "name": "logId",
          "type": "bytes32"
        }
      ],
      "name": "LogVerified",
      "type": "event"
    },
    {
      "constant": true,
      "inputs": [],
      "name": "AA",
      "outputs": [
        {
          "internalType": "uint256",
          "name": "",
          "type": "uint256"
        }
      ],
      "payable": false,
      "stateMutability": "view",
      "type": "function"
    },
    {
      "constant": true,
      "inputs": [],
      "name": "GX",
      "outputs": [
        {
          "internalType": "uint256",
          "name": "",
          "type": "uint256"
        }
      ],
      "payable": false,
      "stateMutability": "view",
      "type": "function"
    },
    {
      "constant": true,
      "inputs": [],
      "name": "GY",
      "outputs": [
        {
          "internalType": "uint256",
          "name": "",
          "type": "uint256"
        }
      ],
      "payable": false,
      "stateMutability": "view",
      "type": "function"
    },
    {
      "constant": true,
      "inputs": [],
      "name": "PP",
      "outputs": [
        {
          "internalType": "uint256",
          "name": "",
          "type": "uint256"
        }
      ],
      "payable": false,
      "stateMutability": "view",
      "type": "function"
    },
    {
      "constant": true,
      "inputs": [
        {
          "internalType": "bytes32",
          "name": "",
          "type": "bytes32"
        }
      ],
      "name": "logs",
      "outputs": [
        {
          "internalType": "address",
          "name": "sender",
          "type": "address"
        },
        {
          "internalType": "address",
          "name": "receiver",
          "type": "address"
        },
        {
          "internalType": "uint256",
          "name": "cid1x",
          "type": "uint256"
        },
        {
          "internalType": "uint256",
          "name": "cid1y",
          "type": "uint256"
        },
        {
          "internalType": "uint256",
          "name": "timelock",
          "type": "uint256"
        },
        {
          "internalType": "bytes32",
          "name": "messageHash",
          "type": "bytes32"
        },
        {
          "internalType": "bool",
          "name": "verified",
          "type": "bool"
        }
      ],
      "payable": false,
      "stateMutability": "view",
      "type": "function"
    },
    {
      "constant": false,
      "inputs": [
        {
          "internalType": "address",
          "name": "_receiver",
          "type": "address"
        },
        {
          "internalType": "uint256",
          "name": "_cid1x",
          "type": "uint256"
        },
        {
          "internalType": "uint256",
          "name": "_cid1y",
          "type": "uint256"
        },
        {
          "internalType": "bytes32",
          "name": "_messageHash",
          "type": "bytes32"
        },
        {
          "internalType": "uint256",
          "name": "_timelock",
          "type": "uint256"
        }
      ],
      "name": "newLog",
      "outputs": [
        {
          "internalType": "bytes32",
          "name": "logId",
          "type": "bytes32"
        }
      ],
      "payable": false,
      "stateMutability": "nonpayable",
      "type": "function"
    },
    {
      "constant": false,
      "inputs": [
        {
          "internalType": "bytes32",
          "name": "_logId",
          "type": "bytes32"
        },
        {
          "internalType": "uint256",
          "name": "_cid2",
          "type": "uint256"
        },
        {
          "internalType": "bytes",
          "name": "_message",
          "type": "bytes"
        }
      ],
      "name": "verifyLog",
      "outputs": [
        {
          "internalType": "bool",
          "name": "",
          "type": "bool"
        }
      ],
      "payable": false,
      "stateMutability": "nonpayable",
      "type": "function"
    }
  ],
  "bytecode": "0x608060405234801561001057600080fd5b5061142b806100206000396000f3fe608060405234801561001057600080fd5b506004361061007d5760003560e01c80639a02b6531161005b5780639a02b653146100dc578063c1ddea9f146101a4578063e26e9c6d14610224578063eeeac01e146102c95761007d565b806303a507be146100825780637a308a4c146100a0578063997da8d4146100be575b600080fd5b61008a6102e7565b6040518082815260200191505060405180910390f35b6100a861030b565b6040518082815260200191505060405180910390f35b6100c661032f565b6040518082815260200191505060405180910390f35b610108600480360360208110156100f257600080fd5b8101908080359060200190929190505050610334565b604051808873ffffffffffffffffffffffffffffffffffffffff1673ffffffffffffffffffffffffffffffffffffffff1681526020018773ffffffffffffffffffffffffffffffffffffffff1673ffffffffffffffffffffffffffffffffffffffff1681526020018681526020018581526020018481526020018381526020018215151515815260200197505050505050505060405180910390f35b61020e600480360360a08110156101ba57600080fd5b81019080803573ffffffffffffffffffffffffffffffffffffffff169060200190929190803590602001909291908035906020019092919080359060200190929190803590602001909291905050506103c3565b6040518082815260200191505060405180910390f35b6102af6004803603606081101561023a57600080fd5b8101908080359060200190929190803590602001909291908035906020019064010000000081111561026b57600080fd5b82018360208201111561027d57600080fd5b8035906020019184600183028401116401000000008311171561029f57600080fd5b909192939192939050505061071e565b604051808215151515815260200191505060405180910390f35b6102d1610afd565b6040518082815260200191505060405180910390f35b7f79be667ef9dcbbac55a06295ce870b07029bfcdb2dce28d959f2815b16f8179881565b7f483ada7726a3c4655da4fbfc0e1108a8fd17b448a68554199c47d08ffb10d4b881565b600081565b60006020528060005260406000206000915090508060000160009054906101000a900473ffffffffffffffffffffffffffffffffffffffff16908060010160009054906101000a900473ffffffffffffffffffffffffffffffffffffffff16908060020154908060030154908060040154908060050154908060060160009054906101000a900460ff16905087565b60008142811161041e576040517f08c379a00000000000000000000000000000000000000000000000000000000081526004018080602001828103825260238152602001806113d46023913960400191505060405180910390fd5b338787878787604051602001808773ffffffffffffffffffffffffffffffffffffffff1673ffffffffffffffffffffffffffffffffffffffff1660601b81526014018673ffffffffffffffffffffffffffffffffffffffff1673ffffffffffffffffffffffffffffffffffffffff1660601b815260140185815260200184815260200183815260200182815260200196505050505050506040516020818303038152906040528051906020012091506104d682610b21565b15610549576040517f08c379a00000000000000000000000000000000000000000000000000000000081526004018080602001828103825260128152602001807f4c6f6720616c726561647920657869737473000000000000000000000000000081525060200191505060405180910390fd5b6040518060e001604052803373ffffffffffffffffffffffffffffffffffffffff1681526020018873ffffffffffffffffffffffffffffffffffffffff1681526020018781526020018681526020018481526020018581526020016000151581525060008084815260200190815260200160002060008201518160000160006101000a81548173ffffffffffffffffffffffffffffffffffffffff021916908373ffffffffffffffffffffffffffffffffffffffff16021790555060208201518160010160006101000a81548173ffffffffffffffffffffffffffffffffffffffff021916908373ffffffffffffffffffffffffffffffffffffffff16021790555060408201518160020155606082015181600301556080820151816004015560a0820151816005015560c08201518160060160006101000a81548160ff0219169083151502179055509050508673ffffffffffffffffffffffffffffffffffffffff163373ffffffffffffffffffffffffffffffffffffffff16837f360985fac5b5477bfa2c1e7f0e5e42edd9ad387430a3e3bf3c84275ad38867c8898989896040518085815260200184815260200183815260200182815260200194505050505060405180910390a45095945050505050565b60008461072a81610b21565b61079c576040517f08c379a00000000000000000000000000000000000000000000000000000000081526004018080602001828103825260128152602001807f4c6f6720646f6573206e6f74206578697374000000000000000000000000000081525060200191505060405180910390fd5b8560008082815260200190815260200160002060060160009054906101000a900460ff1615610833576040517f08c379a00000000000000000000000000000000000000000000000000000000081526004018080602001828103825260108152602001807f416c72656164792076657269666965640000000000000000000000000000000081525060200191505060405180910390fd5b600080600089815260200190815260200160002090503373ffffffffffffffffffffffffffffffffffffffff168160010160009054906101000a900473ffffffffffffffffffffffffffffffffffffffff1673ffffffffffffffffffffffffffffffffffffffff161461090e576040517f08c379a00000000000000000000000000000000000000000000000000000000081526004018080602001828103825260188152602001807f4f6e6c792072656365697665722063616e20766572696679000000000000000081525060200191505060405180910390fd5b60008061097f897f79be667ef9dcbbac55a06295ce870b07029bfcdb2dce28d959f2815b16f817987f483ada7726a3c4655da4fbfc0e1108a8fd17b448a68554199c47d08ffb10d4b860007ffffffffffffffffffffffffffffffffffffffffffffffffffffffffefffffc2f610b8f565b915091508183600201541480156109995750808360030154145b610a0b576040517f08c379a00000000000000000000000000000000000000000000000000000000081526004018080602001828103825260118152602001807f496e76616c696420736b322070726f6f6600000000000000000000000000000081525060200191505060405180910390fd5b82600501548888604051808383808284378083019250505092505050604051809103902014610aa2576040517f08c379a00000000000000000000000000000000000000000000000000000000081526004018080602001828103825260158152602001807f4d6573736167652068617368206d69736d61746368000000000000000000000081525060200191505060405180910390fd5b60018360060160006101000a81548160ff021916908315150217905550897f6845a304bfd125ab8b3faf73f262ab11399e47a6be9eba032093ab5b9221cace60405160405180910390a2600195505050505050949350505050565b7ffffffffffffffffffffffffffffffffffffffffffffffffffffffffefffffc2f81565b60008073ffffffffffffffffffffffffffffffffffffffff1660008084815260200190815260200160002060000160009054906101000a900473ffffffffffffffffffffffffffffffffffffffff1673ffffffffffffffffffffffffffffffffffffffff1614159050919050565b6000806000806000610ba68a8a8a60018b8b610bc9565b925092509250610bb883838389610c6e565b945094505050509550959350505050565b600080600080891415610be457878787925092509250610c62565b6000899050600080905060008090506000600190505b60008414610c545760006001851614610c2957610c1c8383838f8f8f8e610cc9565b8093508194508295505050505b60028481610c3357fe5b049350610c438c8c8c8c8c61119a565b809c50819d50829e50505050610bfa565b828282965096509650505050505b96509650969350505050565b6000806000610c7d85856112b9565b905060008480610c8957fe5b828309905060008580610c9857fe5b828a09905060008680610ca757fe5b8780610caf57fe5b8486098a0990508181955095505050505094509492505050565b6000806000808a148015610cdd5750600089145b15610cf05786868692509250925061118d565b600087148015610d005750600086145b15610d135789898992509250925061118d565b610d1b6113b1565b8480610d2357fe5b898a0981600060048110610d3357fe5b6020020181815250508480610d4457fe5b81600060048110610d5157fe5b60200201518a0981600160048110610d6557fe5b6020020181815250508480610d7657fe5b86870981600260048110610d8657fe5b6020020181815250508480610d9757fe5b81600260048110610da457fe5b6020020151870981600360048110610db857fe5b60200201818152505060405180608001604052808680610dd457fe5b83600260048110610de157fe5b60200201518e0981526020018680610df557fe5b83600360048110610e0257fe5b60200201518d0981526020018680610e1657fe5b83600060048110610e2357fe5b60200201518b0981526020018680610e3757fe5b83600160048110610e4457fe5b60200201518a09815250905080600260048110610e5d57fe5b602002015181600060048110610e6f57fe5b6020020151141580610ea3575080600360048110610e8957fe5b602002015181600160048110610e9b57fe5b602002015114155b610f15576040517f08c379a000000000000000000000000000000000000000000000000000000000815260040180806020018281038252601e8152602001807f557365206a6163446f75626c652066756e6374696f6e20696e7374656164000081525060200191505060405180910390fd5b610f1d6113b1565b8580610f2557fe5b82600060048110610f3257fe5b6020020151870383600260048110610f4657fe5b60200201510881600060048110610f5957fe5b6020020181815250508580610f6a57fe5b82600160048110610f7757fe5b6020020151870383600360048110610f8b57fe5b60200201510881600160048110610f9e57fe5b6020020181815250508580610faf57fe5b81600060048110610fbc57fe5b602002015182600060048110610fce57fe5b60200201510981600260048110610fe157fe5b6020020181815250508580610ff257fe5b81600060048110610fff57fe5b60200201518260026004811061101157fe5b6020020151098160036004811061102457fe5b6020020181815250506000868061103757fe5b8260036004811061104457fe5b60200201518803888061105357fe5b8460016004811061106057fe5b60200201518560016004811061107257fe5b602002015109089050868061108357fe5b878061108b57fe5b888061109357fe5b846002600481106110a057fe5b6020020151866000600481106110b257fe5b602002015109600209880382089050600087806110cb57fe5b88806110d357fe5b838a038a806110de57fe5b866002600481106110eb57fe5b6020020151886000600481106110fd57fe5b602002015109088460016004811061111157fe5b6020020151099050878061112157fe5b888061112957fe5b8460036004811061113657fe5b60200201518660016004811061114857fe5b6020020151098903820890506000888061115e57fe5b898061116657fe5b8b8f098560006004811061117657fe5b602002015109905082828297509750975050505050505b9750975097945050505050565b6000806000808614156111b5578787879250925092506112ae565b600084806111bf57fe5b898a099050600085806111ce57fe5b898a099050600086806111dd57fe5b898a099050600087806111ec57fe5b88806111f457fe5b848e0960040990506000888061120657fe5b898061120e57fe5b8a8061121657fe5b8586098c098a8061122357fe5b87600309089050888061123257fe5b898061123a57fe5b8384088a038a8061124757fe5b838409089450888061125557fe5b898061125d57fe5b8a8061126557fe5b8687096008098a038a8061127557fe5b8b8061127d57fe5b888d0386088409089350888061128f57fe5b898061129757fe5b8c8e09600209925084848497509750975050505050505b955095509592505050565b60008083141580156112cb5750818314155b80156112d8575060008214155b61134a576040517f08c379a000000000000000000000000000000000000000000000000000000000815260040180806020018281038252600e8152602001807f496e76616c6964206e756d62657200000000000000000000000000000000000081525060200191505060405180910390fd5b6000809050600060019050600084905060005b600087146113a45786828161136e57fe5b04905082868061137a57fe5b878061138257fe5b858409880386088094508195505050868782028303809850819350505061135d565b8394505050505092915050565b604051806080016040528060049060208202803883398082019150509050509056fe74696d656c6f636b2074696d65206d75737420626520696e2074686520667574757265a265627a7a723158204fe9996f329bac26548269dfb24e6ebcbed12e54568e479ac6fa267358da71f764736f6c63430005100032",
  "source": "// SPDX-License-Identifier: MIT\n\npragma solidity ^0.5.0;\n\nimport \"./EllipticCurve.sol\";\n\ncontract CIDLog {\n\n    event LogEntryNew(\n        bytes32 indexed logId,\n        address indexed sender,\n        address indexed receiver,\n        uint256 cid1x,\n        uint256 cid1y,\n        bytes32 messageHash,\n        uint timelock\n    );\n    \n    event LogVerified(bytes32 indexed logId);\n\n    struct LogContract {\n        address sender;\n        address receiver;\n        uint256 cid1x;\n        uint256 cid1y; //the pre-set results calculated by the buyer(sender) for future checking\n        uint timelock; // UNIX timestamp seconds - locked UNTIL this time\n        bytes32 messageHash; // the hash of the message to be logged\n        bool verified; // true if the log was verified\n    }\n    \n    uint256 public constant GX = 0x79BE667EF9DCBBAC55A06295CE870B07029BFCDB2DCE28D959F2815B16F81798;\n    uint256 public constant GY = 0x483ADA7726A3C4655DA4FBFC0E1108A8FD17B448A68554199C47D08FFB10D4B8;\n    uint256 public constant AA = 0;\n    uint256 public constant PP = 0xFFFFFFFFFFFFFFFFFFFFFFFFFFFFFFFFFFFFFFFFFFFFFFFFFFFFFFFEFFFFFC2F;\n\n    modifier futureTimelock(uint _time) {\n        // only requirement is the timelock time is after the last blocktime (now).\n        // probably want something a bit further in the future then this.\n        // but this is still a useful sanity check:\n        require(_time > now, \"timelock time must be in the future\");\n        _;\n    }\n\n\n    function haveLog(bytes32 _logId)\n        internal\n        view\n        returns (bool)\n    {\n        return logs[_logId].sender != address(0);\n    }\n\n    modifier logExists(bytes32 _logId) {\n        require(haveLog(_logId), \"Log does not exist\");\n        _;\n    }\n\n    modifier sklockMatches(bytes32 _logId, uint256 cid2) {\n        uint256 cid2x;\n        uint256 cid2y;\n        (cid2x, cid2y) = EllipticCurve.ecMul(cid2,GX,GY,AA,PP);                  //sk2*G(X,Y) \n        require(logs[_logId].cid1x == cid2x, \"CID does not match\");\n        require(logs[_logId].cid1y == cid2y, \"CID does not match\");\n        _;\n    }\n\n    mapping (bytes32 => LogContract) public logs;\n\n    function newLog(address _receiver, uint256 _cid1x, uint256 _cid1y, bytes32 _messageHash, uint _timelock)\n        external\n        futureTimelock(_timelock)\n        returns (bytes32 logId)\n    {\n        logId = keccak256(\n            abi.encodePacked(\n                msg.sender,\n                _receiver,\n                _cid1x,\n                _cid1y,\n                _messageHash,\n                _timelock\n            )\n        );\n\n        // Reject if a contract already exists with the same parameters. The\n        // sender must change one of these parameters to create a new distinct\n        // contract.\n        if (haveLog(logId))\n            revert(\"Log already exists\");\n\n        logs[logId] = LogContract(\n            msg.sender,\n            _receiver,\n            _cid1x,\n            _cid1y,\n            _timelock,\n            _messageHash,\n            false\n        );\n\n        emit LogEntryNew(\n            logId,\n            msg.sender,\n            _receiver,\n            _cid1x,\n            _cid1y,\n            _messageHash,\n            _timelock\n        );\n    }\n\n    modifier notVerified(bytes32 _logId) {\n        require(!logs[_logId].verified, \"Already verified\");\n        _;\n    }\n\n\n     function verifyLog(bytes32 _logId, uint256 _cid2, bytes calldata _message)\n         external\n         logExists(_logId)\n         notVerified(_logId)\n         returns (bool)\n     {\n         LogContract storage log = logs[_logId];\n         require(log.receiver == msg.sender, \"Only receiver can verify\");\n\n         (uint256 cid2x, uint256 cid2y) = EllipticCurve.ecMul(_cid2, GX, GY, AA, PP);\n         require(log.cid1x == cid2x && log.cid1y == cid2y, \"Invalid sk2 proof\");\n\n         require(keccak256(_message) == log.messageHash, \"Message hash mismatch\");\n\n         log.verified = true;\n         emit LogVerified(_logId);\n         return true;\n     }\n}\n",
  "sourcePath": "/home/shady/Github/FairTradeExt/contracts/CIDLog.sol",
  "compiler": {
    "name": "solc",
    "version": "0.5.16+commit.9c3226ce.Emscripten.clang"
  },
  "schemaVersion": "3.4.16",
  "updatedAt": "2025-06-13T16:59:03.443Z",
  "networkType": "ethereum",
  "devdoc": {
    "methods": {}
  },
  "userdoc": {
    "methods": {}
  }
}