{
  "contractName": "FairTradeExtBsl",
  "abi": [
    {
      "anonymous": false,
      "inputs": [
        {
          "indexed": true,
          "internalType": "bytes32",
          "name": "contractId",
          "type": "bytes32"
        },
        {
          "indexed": true,
          "internalType": "address",
          "name": "sender",
          "type": "address"
        },
        {
          "indexed": true,
          "internalType": "address",
          "name": "receiver",
          "type": "address"
        },
        {
          "indexed": false,
          "internalType": "address",
          "name": "seller",
          "type": "address"
        },
        {
          "indexed": false,
          "internalType": "uint256",
          "name": "amount",
          "type": "uint256"
        },
        {
          "indexed": false,
          "internalType": "uint256",
          "name": "sk1x",
          "type": "uint256"
        },
        {
          "indexed": false,
          "internalType": "uint256",
          "name": "sk1y",
          "type": "uint256"
        },
        {
          "indexed": false,
          "internalType": "uint256",
          "name": "timelock",
          "type": "uint256"
        }
      ],
      "name": "LogHTLCNew",
      "type": "event"
    },
    {
      "anonymous": false,
      "inputs": [
        {
          "indexed": true,
          "internalType": "bytes32",
          "name": "contractId",
          "type": "bytes32"
        }
      ],
      "name": "LogHTLCRefund",
      "type": "event"
    },
    {
      "anonymous": false,
      "inputs": [
        {
          "indexed": true,
          "internalType": "bytes32",
          "name": "contractId",
          "type": "bytes32"
        }
      ],
      "name": "LogHTLCWithdraw",
      "type": "event"
    },
    {
      "constant": true,
      "inputs": [],
      "name": "AA",
      "outputs": [
        {
          "internalType": "uint256",
          "name": "",
          "type": "uint256"
        }
      ],
      "payable": false,
      "stateMutability": "view",
      "type": "function"
    },
    {
      "constant": true,
      "inputs": [],
      "name": "GX",
      "outputs": [
        {
          "internalType": "uint256",
          "name": "",
          "type": "uint256"
        }
      ],
      "payable": false,
      "stateMutability": "view",
      "type": "function"
    },
    {
      "constant": true,
      "inputs": [],
      "name": "GY",
      "outputs": [
        {
          "internalType": "uint256",
          "name": "",
          "type": "uint256"
        }
      ],
      "payable": false,
      "stateMutability": "view",
      "type": "function"
    },
    {
      "constant": true,
      "inputs": [],
      "name": "PP",
      "outputs": [
        {
          "internalType": "uint256",
          "name": "",
          "type": "uint256"
        }
      ],
      "payable": false,
      "stateMutability": "view",
      "type": "function"
    },
    {
      "constant": false,
      "inputs": [
        {
          "internalType": "address payable",
          "name": "_receiver",
          "type": "address"
        },
        {
          "internalType": "address payable",
          "name": "_seller",
          "type": "address"
        },
        {
          "internalType": "uint256",
          "name": "_sk1x",
          "type": "uint256"
        },
        {
          "internalType": "uint256",
          "name": "_sk1y",
          "type": "uint256"
        },
        {
          "internalType": "uint256",
          "name": "_timelock",
          "type": "uint256"
        }
      ],
      "name": "newContract",
      "outputs": [
        {
          "internalType": "bytes32",
          "name": "contractId",
          "type": "bytes32"
        }
      ],
      "payable": true,
      "stateMutability": "payable",
      "type": "function"
    },
    {
      "constant": false,
      "inputs": [
        {
          "internalType": "bytes32",
          "name": "_contractId",
          "type": "bytes32"
        },
        {
          "internalType": "uint256",
          "name": "_sk2",
          "type": "uint256"
        }
      ],
      "name": "withdraw",
      "outputs": [
        {
          "internalType": "bool",
          "name": "",
          "type": "bool"
        }
      ],
      "payable": false,
      "stateMutability": "nonpayable",
      "type": "function"
    },
    {
      "constant": false,
      "inputs": [
        {
          "internalType": "bytes32",
          "name": "_contractId",
          "type": "bytes32"
        }
      ],
      "name": "refund",
      "outputs": [
        {
          "internalType": "bool",
          "name": "",
          "type": "bool"
        }
      ],
      "payable": false,
      "stateMutability": "nonpayable",
      "type": "function"
    },
    {
      "constant": true,
      "inputs": [
        {
          "internalType": "bytes32",
          "name": "_contractId",
          "type": "bytes32"
        }
      ],
      "name": "getContract",
      "outputs": [
        {
          "internalType": "address",
          "name": "sender",
          "type": "address"
        },
        {
          "internalType": "address",
          "name": "receiver",
          "type": "address"
        },
        {
          "internalType": "address",
          "name": "seller",
          "type": "address"
        },
        {
          "internalType": "uint256",
          "name": "amount",
          "type": "uint256"
        },
        {
          "internalType": "uint256",
          "name": "sk1x",
          "type": "uint256"
        },
        {
          "internalType": "uint256",
          "name": "sk1y",
          "type": "uint256"
        },
        {
          "internalType": "uint256",
          "name": "timelock",
          "type": "uint256"
        },
        {
          "internalType": "bool",
          "name": "withdrawn",
          "type": "bool"
        },
        {
          "internalType": "bool",
          "name": "refunded",
          "type": "bool"
        }
      ],
      "payable": false,
      "stateMutability": "view",
      "type": "function"
    }
  ],
  "bytecode": "0x608060405234801561001057600080fd5b50611c86806100206000396000f3fe60806040526004361061007b5760003560e01c80637a308a4c1161004e5780637a308a4c146101f1578063997da8d41461021c578063e16c7d9814610247578063eeeac01e1461035a5761007b565b806303a507be14610080578063040cf020146100ab5780632be56c1d146101085780637249fbb61461019e575b600080fd5b34801561008c57600080fd5b50610095610385565b6040518082815260200191505060405180910390f35b3480156100b757600080fd5b506100ee600480360360408110156100ce57600080fd5b8101908080359060200190929190803590602001909291905050506103a9565b604051808215151515815260200191505060405180910390f35b610188600480360360a081101561011e57600080fd5b81019080803573ffffffffffffffffffffffffffffffffffffffff169060200190929190803573ffffffffffffffffffffffffffffffffffffffff1690602001909291908035906020019092919080359060200190929190803590602001909291905050506108f9565b6040518082815260200191505060405180910390f35b3480156101aa57600080fd5b506101d7600480360360208110156101c157600080fd5b8101908080359060200190929190505050610dc2565b604051808215151515815260200191505060405180910390f35b3480156101fd57600080fd5b50610206611198565b6040518082815260200191505060405180910390f35b34801561022857600080fd5b506102316111bc565b6040518082815260200191505060405180910390f35b34801561025357600080fd5b506102806004803603602081101561026a57600080fd5b81019080803590602001909291905050506111c1565b604051808a73ffffffffffffffffffffffffffffffffffffffff1673ffffffffffffffffffffffffffffffffffffffff1681526020018973ffffffffffffffffffffffffffffffffffffffff1673ffffffffffffffffffffffffffffffffffffffff1681526020018873ffffffffffffffffffffffffffffffffffffffff1673ffffffffffffffffffffffffffffffffffffffff1681526020018781526020018681526020018581526020018481526020018315151515815260200182151515158152602001995050505050505050505060405180910390f35b34801561036657600080fd5b5061036f611304565b6040518082815260200191505060405180910390f35b7f79be667ef9dcbbac55a06295ce870b07029bfcdb2dce28d959f2815b16f8179881565b6000826103b581611328565b610427576040517f08c379a00000000000000000000000000000000000000000000000000000000081526004018080602001828103825260198152602001807f636f6e7472616374496420646f6573206e6f742065786973740000000000000081525060200191505060405180910390fd5b838360008061049a837f79be667ef9dcbbac55a06295ce870b07029bfcdb2dce28d959f2815b16f817987f483ada7726a3c4655da4fbfc0e1108a8fd17b448a68554199c47d08ffb10d4b860007ffffffffffffffffffffffffffffffffffffffffffffffffffffffffefffffc2f611396565b809250819350505081600080868152602001908152602001600020600401541461052c576040517f08c379a00000000000000000000000000000000000000000000000000000000081526004018080602001828103825260128152602001807f736b3220646f6573206e6f74206d61746368000000000000000000000000000081525060200191505060405180910390fd5b8060008086815260200190815260200160002060050154146105b6576040517f08c379a00000000000000000000000000000000000000000000000000000000081526004018080602001828103825260128152602001807f736b3220646f6573206e6f74206d61746368000000000000000000000000000081525060200191505060405180910390fd5b873373ffffffffffffffffffffffffffffffffffffffff1660008083815260200190815260200160002060010160009054906101000a900473ffffffffffffffffffffffffffffffffffffffff1673ffffffffffffffffffffffffffffffffffffffff161461068d576040517f08c379a000000000000000000000000000000000000000000000000000000000815260040180806020018281038252601a8152602001807f776974686472617761626c653a206e6f7420726563656976657200000000000081525060200191505060405180910390fd5b6000151560008083815260200190815260200160002060070160009054906101000a900460ff16151514610729576040517f08c379a000000000000000000000000000000000000000000000000000000000815260040180806020018281038252601f8152602001807f776974686472617761626c653a20616c72656164792077697468647261776e0081525060200191505060405180910390fd5b426000808381526020019081526020016000206006015411610796576040517f08c379a0000000000000000000000000000000000000000000000000000000008152600401808060200182810382526031815260200180611c216031913960400191505060405180910390fd5b60008060008b8152602001908152602001600020905060018160070160006101000a81548160ff0219169083151502179055508060010160009054906101000a900473ffffffffffffffffffffffffffffffffffffffff1673ffffffffffffffffffffffffffffffffffffffff166108fc600283600301548161081557fe5b049081150290604051600060405180830381858888f19350505050158015610841573d6000803e3d6000fd5b508060020160009054906101000a900473ffffffffffffffffffffffffffffffffffffffff1673ffffffffffffffffffffffffffffffffffffffff166108fc600283600301548161088e57fe5b049081150290604051600060405180830381858888f193505050501580156108ba573d6000803e3d6000fd5b50897fd6fd4c8e45bf0c70693141c7ce46451b6a6a28ac8386fca2ba914044e0e2391660405160405180910390a2600197505050505050505092915050565b6000803411610970576040517f08c379a00000000000000000000000000000000000000000000000000000000081526004018080602001828103825260158152602001807f6d73672e76616c7565206d757374206265203e2030000000000000000000000081525060200191505060405180910390fd5b814281116109c9576040517f08c379a0000000000000000000000000000000000000000000000000000000008152600401808060200182810382526023815260200180611bdb6023913960400191505060405180910390fd5b33878734888888604051602001808873ffffffffffffffffffffffffffffffffffffffff1673ffffffffffffffffffffffffffffffffffffffff1660601b81526014018773ffffffffffffffffffffffffffffffffffffffff1673ffffffffffffffffffffffffffffffffffffffff1660601b81526014018673ffffffffffffffffffffffffffffffffffffffff1673ffffffffffffffffffffffffffffffffffffffff1660601b8152601401858152602001848152602001838152602001828152602001975050505050505050604051602081830303815290604052805190602001209150610ab882611328565b15610b2b576040517f08c379a00000000000000000000000000000000000000000000000000000000081526004018080602001828103825260178152602001807f436f6e747261637420616c72656164792065786973747300000000000000000081525060200191505060405180910390fd5b6040518061012001604052803373ffffffffffffffffffffffffffffffffffffffff1681526020018873ffffffffffffffffffffffffffffffffffffffff1681526020018773ffffffffffffffffffffffffffffffffffffffff1681526020013481526020018681526020018581526020018481526020016000151581526020016000151581525060008084815260200190815260200160002060008201518160000160006101000a81548173ffffffffffffffffffffffffffffffffffffffff021916908373ffffffffffffffffffffffffffffffffffffffff16021790555060208201518160010160006101000a81548173ffffffffffffffffffffffffffffffffffffffff021916908373ffffffffffffffffffffffffffffffffffffffff16021790555060408201518160020160006101000a81548173ffffffffffffffffffffffffffffffffffffffff021916908373ffffffffffffffffffffffffffffffffffffffff160217905550606082015181600301556080820151816004015560a0820151816005015560c0820151816006015560e08201518160070160006101000a81548160ff0219169083151502179055506101008201518160070160016101000a81548160ff0219169083151502179055509050508673ffffffffffffffffffffffffffffffffffffffff163373ffffffffffffffffffffffffffffffffffffffff16837f6483e62f72702528358eff0249eb949096c09b09cd3b2547e9c75b141490052189348a8a8a604051808673ffffffffffffffffffffffffffffffffffffffff1673ffffffffffffffffffffffffffffffffffffffff1681526020018581526020018481526020018381526020018281526020019550505050505060405180910390a45095945050505050565b600081610dce81611328565b610e40576040517f08c379a00000000000000000000000000000000000000000000000000000000081526004018080602001828103825260198152602001807f636f6e7472616374496420646f6573206e6f742065786973740000000000000081525060200191505060405180910390fd5b823373ffffffffffffffffffffffffffffffffffffffff1660008083815260200190815260200160002060000160009054906101000a900473ffffffffffffffffffffffffffffffffffffffff1673ffffffffffffffffffffffffffffffffffffffff1614610f17576040517f08c379a00000000000000000000000000000000000000000000000000000000081526004018080602001828103825260168152602001807f726566756e6461626c653a206e6f742073656e6465720000000000000000000081525060200191505060405180910390fd5b6000151560008083815260200190815260200160002060070160019054906101000a900460ff16151514610fb3576040517f08c379a000000000000000000000000000000000000000000000000000000000815260040180806020018281038252601c8152602001807f726566756e6461626c653a20616c726561647920726566756e6465640000000081525060200191505060405180910390fd5b6000151560008083815260200190815260200160002060070160009054906101000a900460ff1615151461104f576040517f08c379a000000000000000000000000000000000000000000000000000000000815260040180806020018281038252601d8152602001807f726566756e6461626c653a20616c72656164792077697468647261776e00000081525060200191505060405180910390fd5b426000808381526020019081526020016000206006015411156110bd576040517f08c379a0000000000000000000000000000000000000000000000000000000008152600401808060200182810382526023815260200180611bfe6023913960400191505060405180910390fd5b6000806000868152602001908152602001600020905060018160070160016101000a81548160ff0219169083151502179055508060000160009054906101000a900473ffffffffffffffffffffffffffffffffffffffff1673ffffffffffffffffffffffffffffffffffffffff166108fc82600301549081150290604051600060405180830381858888f1935050505015801561115e573d6000803e3d6000fd5b50847f989b3a845197c9aec15f8982bbb30b5da714050e662a7a287bb1a94c81e2e70e60405160405180910390a260019350505050919050565b7f483ada7726a3c4655da4fbfc0e1108a8fd17b448a68554199c47d08ffb10d4b881565b600081565b60008060008060008060008060008015156111db8b611328565b1515141561121d5760008060008060008060008060008898508797508696508595508494508393508292509850985098509850985098509850985098506112f7565b60008060008c815260200190815260200160002090508060000160009054906101000a900473ffffffffffffffffffffffffffffffffffffffff168160010160009054906101000a900473ffffffffffffffffffffffffffffffffffffffff168260020160009054906101000a900473ffffffffffffffffffffffffffffffffffffffff1683600301548460040154856005015486600601548760070160009054906101000a900460ff168860070160019054906101000a900460ff16889850879750869650995099509950995099509950995099509950505b9193959799909294969850565b7ffffffffffffffffffffffffffffffffffffffffffffffffffffffffefffffc2f81565b60008073ffffffffffffffffffffffffffffffffffffffff1660008084815260200190815260200160002060000160009054906101000a900473ffffffffffffffffffffffffffffffffffffffff1673ffffffffffffffffffffffffffffffffffffffff1614159050919050565b60008060008060006113ad8a8a8a60018b8b6113d0565b9250925092506113bf83838389611475565b945094505050509550959350505050565b6000806000808914156113eb57878787925092509250611469565b6000899050600080905060008090506000600190505b6000841461145b5760006001851614611430576114238383838f8f8f8e6114d0565b8093508194508295505050505b6002848161143a57fe5b04935061144a8c8c8c8c8c6119a1565b809c50819d50829e50505050611401565b828282965096509650505050505b96509650969350505050565b60008060006114848585611ac0565b90506000848061149057fe5b82830990506000858061149f57fe5b828a099050600086806114ae57fe5b87806114b657fe5b8486098a0990508181955095505050505094509492505050565b6000806000808a1480156114e45750600089145b156114f757868686925092509250611994565b6000871480156115075750600086145b1561151a57898989925092509250611994565b611522611bb8565b848061152a57fe5b898a098160006004811061153a57fe5b602002018181525050848061154b57fe5b8160006004811061155857fe5b60200201518a098160016004811061156c57fe5b602002018181525050848061157d57fe5b8687098160026004811061158d57fe5b602002018181525050848061159e57fe5b816002600481106115ab57fe5b60200201518709816003600481106115bf57fe5b602002018181525050604051806080016040528086806115db57fe5b836002600481106115e857fe5b60200201518e09815260200186806115fc57fe5b8360036004811061160957fe5b60200201518d098152602001868061161d57fe5b8360006004811061162a57fe5b60200201518b098152602001868061163e57fe5b8360016004811061164b57fe5b60200201518a0981525090508060026004811061166457fe5b60200201518160006004811061167657fe5b60200201511415806116aa57508060036004811061169057fe5b6020020151816001600481106116a257fe5b602002015114155b61171c576040517f08c379a000000000000000000000000000000000000000000000000000000000815260040180806020018281038252601e8152602001807f557365206a6163446f75626c652066756e6374696f6e20696e7374656164000081525060200191505060405180910390fd5b611724611bb8565b858061172c57fe5b8260006004811061173957fe5b602002015187038360026004811061174d57fe5b6020020151088160006004811061176057fe5b602002018181525050858061177157fe5b8260016004811061177e57fe5b602002015187038360036004811061179257fe5b602002015108816001600481106117a557fe5b60200201818152505085806117b657fe5b816000600481106117c357fe5b6020020151826000600481106117d557fe5b602002015109816002600481106117e857fe5b60200201818152505085806117f957fe5b8160006004811061180657fe5b60200201518260026004811061181857fe5b6020020151098160036004811061182b57fe5b6020020181815250506000868061183e57fe5b8260036004811061184b57fe5b60200201518803888061185a57fe5b8460016004811061186757fe5b60200201518560016004811061187957fe5b602002015109089050868061188a57fe5b878061189257fe5b888061189a57fe5b846002600481106118a757fe5b6020020151866000600481106118b957fe5b602002015109600209880382089050600087806118d257fe5b88806118da57fe5b838a038a806118e557fe5b866002600481106118f257fe5b60200201518860006004811061190457fe5b602002015109088460016004811061191857fe5b6020020151099050878061192857fe5b888061193057fe5b8460036004811061193d57fe5b60200201518660016004811061194f57fe5b6020020151098903820890506000888061196557fe5b898061196d57fe5b8b8f098560006004811061197d57fe5b602002015109905082828297509750975050505050505b9750975097945050505050565b6000806000808614156119bc57878787925092509250611ab5565b600084806119c657fe5b898a099050600085806119d557fe5b898a099050600086806119e457fe5b898a099050600087806119f357fe5b88806119fb57fe5b848e09600409905060008880611a0d57fe5b8980611a1557fe5b8a80611a1d57fe5b8586098c098a80611a2a57fe5b876003090890508880611a3957fe5b8980611a4157fe5b8384088a038a80611a4e57fe5b8384090894508880611a5c57fe5b8980611a6457fe5b8a80611a6c57fe5b8687096008098a038a80611a7c57fe5b8b80611a8457fe5b888d03860884090893508880611a9657fe5b8980611a9e57fe5b8c8e09600209925084848497509750975050505050505b955095509592505050565b6000808314158015611ad25750818314155b8015611adf575060008214155b611b51576040517f08c379a000000000000000000000000000000000000000000000000000000000815260040180806020018281038252600e8152602001807f496e76616c6964206e756d62657200000000000000000000000000000000000081525060200191505060405180910390fd5b6000809050600060019050600084905060005b60008714611bab57868281611b7557fe5b049050828680611b8157fe5b8780611b8957fe5b8584098803860880945081955050508687820283038098508193505050611b64565b8394505050505092915050565b604051806080016040528060049060208202803883398082019150509050509056fe74696d656c6f636b2074696d65206d75737420626520696e2074686520667574757265726566756e6461626c653a2074696d656c6f636b206e6f742079657420706173736564776974686472617761626c653a2074696d656c6f636b2074696d65206d75737420626520696e2074686520667574757265a265627a7a72315820a5de586e696bcac1e6051292144a01be1fc570539d7f6c76962a1d1cfecbbdc964736f6c63430005100032",
  "source": "// SPDX-License-Identifier: MIT\n\npragma solidity ^0.5.0;\n\nimport \"./EllipticCurve.sol\";\n\n/**\n * @title Hashed Timelock Contracts (HTLCs) on Ethereum ETH.\n *\n * This contract provides a way to create and keep HTLCs for ETH.\n *\n * See FairTradeExtERC20.sol for a contract that provides the same functions\n * for ERC20 tokens.\n *\n * Protocol:\n *\n *  1) newContract(receiver, sk1, sk1y, timelock) - a sender calls this to create\n *      a new HTLC and gets back a 32 byte contract id\n *  2) withdraw(contractId, sk2) - once the receiver knows sk2 \n *      they can claim the ETH with this function\n *  3) refund() - after timelock has expired and if the receiver did not\n *      withdraw funds the sender / creator of the HTLC can get their ETH\n *      back with this function.\n */\ncontract FairTradeExtBsl {\n\n    event LogHTLCNew(\n        bytes32 indexed contractId,\n        address indexed sender,\n        address indexed receiver,\n        address seller,\n        uint amount,\n        uint256 sk1x,\n        uint256 sk1y,\n        uint timelock\n    );\n    event LogHTLCWithdraw(bytes32 indexed contractId);\n    event LogHTLCRefund(bytes32 indexed contractId);\n\n    struct LockContract {\n        address payable sender;\n        address payable receiver;\n        address payable seller;\n        uint amount;\n        uint256 sk1x;\n        uint256 sk1y; //the pre-set results calculated by the buyer(sender) for future checking\n        uint timelock; // UNIX timestamp seconds - locked UNTIL this time\n        bool withdrawn;\n        bool refunded;\n    }\n    \n    uint256 public constant GX = 0x79BE667EF9DCBBAC55A06295CE870B07029BFCDB2DCE28D959F2815B16F81798;\n    uint256 public constant GY = 0x483ADA7726A3C4655DA4FBFC0E1108A8FD17B448A68554199C47D08FFB10D4B8;\n    uint256 public constant AA = 0;\n    uint256 public constant PP = 0xFFFFFFFFFFFFFFFFFFFFFFFFFFFFFFFFFFFFFFFFFFFFFFFFFFFFFFFEFFFFFC2F;\n    //uint256 public constant sk1x = 112711660439710606056748659173929673102114977341539408544630613555209775888121;\n    //uint256 public constant sk1y = 25583027980570883691656905877401976406448868254816295069919888960541586679410;\n\n    modifier fundsSent() {\n        require(msg.value > 0, \"msg.value must be > 0\");\n        _;\n    }\n    modifier futureTimelock(uint _time) {\n        // only requirement is the timelock time is after the last blocktime (now).\n        // probably want something a bit further in the future then this.\n        // but this is still a useful sanity check:\n        require(_time > now, \"timelock time must be in the future\");\n        _;\n    }\n    modifier contractExists(bytes32 _contractId) {\n        require(haveContract(_contractId), \"contractId does not exist\");\n        _;\n    }\n    modifier sklockMatches(bytes32 _contractId, uint256 sk2) {\n        uint256 sk2x;\n        uint256 sk2y;\n        (sk2x, sk2y) = EllipticCurve.ecMul(sk2,GX,GY,AA,PP);                  //sk2*G(X,Y) \n        require(contracts[_contractId].sk1x == sk2x, \"sk2 does not match\");\n        require(contracts[_contractId].sk1y == sk2y, \"sk2 does not match\");\n        _;\n    }\n    modifier withdrawable(bytes32 _contractId) {\n        require(contracts[_contractId].receiver == msg.sender, \"withdrawable: not receiver\");\n        require(contracts[_contractId].withdrawn == false, \"withdrawable: already withdrawn\");\n        require(contracts[_contractId].timelock > now, \"withdrawable: timelock time must be in the future\");\n        _;\n    }\n    modifier refundable(bytes32 _contractId) {\n        require(contracts[_contractId].sender == msg.sender, \"refundable: not sender\");\n        require(contracts[_contractId].refunded == false, \"refundable: already refunded\");\n        require(contracts[_contractId].withdrawn == false, \"refundable: already withdrawn\");\n        require(contracts[_contractId].timelock <= now, \"refundable: timelock not yet passed\");\n        _;\n    }\n\n    mapping (bytes32 => LockContract) contracts;\n\n    /**\n     * @dev Sender sets up a new hash time lock contract depositing the ETH and\n     * providing the reciever lock terms.\n     *\n     * @param _receiver Receiver of the ETH.\n     * @param _seller Seller of the data.\n     * @param _sk1x, _sk1y The calculated results based on sk1 which was given during the negotiation phase.\n     * @param _timelock UNIX epoch seconds time that the lock expires at.\n     *                  Refunds can be made after this time.\n     * @return contractId Id of the new HTLC. This is needed for subsequent\n     *                    calls.\n     */\n    function newContract(address payable _receiver, address payable _seller, uint256 _sk1x, uint256 _sk1y, uint _timelock)\n        external\n        payable\n        fundsSent\n        futureTimelock(_timelock)\n        returns (bytes32 contractId)\n    {\n        contractId = keccak256(\n            abi.encodePacked(\n                msg.sender,\n                _receiver,\n                _seller,\n                msg.value,\n                _sk1x,\n                _sk1y,\n                _timelock\n            )\n        );\n\n        // Reject if a contract already exists with the same parameters. The\n        // sender must change one of these parameters to create a new distinct\n        // contract.\n        if (haveContract(contractId))\n            revert(\"Contract already exists\");\n\n        contracts[contractId] = LockContract(\n            msg.sender,\n            _receiver,\n            _seller,\n            msg.value,\n            _sk1x,\n            _sk1y,\n            _timelock,\n            false,\n            false\n        );\n\n        emit LogHTLCNew(\n            contractId,\n            msg.sender,\n            _receiver,\n            _seller,\n            msg.value,\n            _sk1x,\n            _sk1y,\n            _timelock\n        );\n    }\n\n    /**\n     * @dev Called by the receiver once they know sk2.\n     * This will transfer the locked funds to their address.\n     *\n     * @param _contractId Id of the HTLC.\n     * @param _sk2 G(X,Y)**_sk2 should equal to (sk1x,sk1y).\n     * @return bool true on success\n     */\n    function withdraw(bytes32 _contractId, uint256 _sk2)\n        external\n        contractExists(_contractId)\n        sklockMatches(_contractId, _sk2)\n        withdrawable(_contractId)\n        returns (bool)\n    {\n        LockContract storage c = contracts[_contractId];\n        //c.sk2 = _preimage;\n        c.withdrawn = true;\n        c.receiver.transfer(c.amount/2);\n        c.seller.transfer(c.amount/2);\n        emit LogHTLCWithdraw(_contractId);\n        return true;\n    }\n\n    /**\n     * @dev Called by the sender if there was no withdraw AND the time lock has\n     * expired. This will refund the contract amount.\n     *\n     * @param _contractId Id of HTLC to refund from.\n     * @return bool true on success\n     */\n    function refund(bytes32 _contractId)\n        external\n        contractExists(_contractId)\n        refundable(_contractId)\n        returns (bool)\n    {\n        LockContract storage c = contracts[_contractId];\n        c.refunded = true;\n        c.sender.transfer(c.amount);\n        emit LogHTLCRefund(_contractId);\n        return true;\n    }\n\n    /**\n     * @dev Get contract details.\n     * @param _contractId HTLC contract id\n     * return All parameters in struct LockContract for _contractId HTLC\n     */\n    function getContract(bytes32 _contractId) \n    public \n    view \n    returns (\n        address sender,\n        address receiver,\n        address seller,\n        uint amount,\n        uint256 sk1x,\n        uint256 sk1y,\n        uint timelock,\n        bool withdrawn,\n        bool refunded)\n    {\n        if (haveContract(_contractId) == false)\n            return (address(0), address(0), address(0), 0, 0, 0, 0, false, false);\n        LockContract storage c = contracts[_contractId];\n        return (\n            c.sender,\n            c.receiver,\n            c.seller,\n            c.amount,\n            c.sk1x,\n            c.sk1y,\n            c.timelock,\n            c.withdrawn,\n            c.refunded\n        );\n    }\n\n    /**\n     * @dev Is there a contract with id _contractId.\n     * @param _contractId Id into contracts mapping.\n     */\n    function haveContract(bytes32 _contractId)\n        internal\n        view\n        returns (bool exists)\n    {\n        exists = (contracts[_contractId].sender != address(0));\n    }\n\n}",
  "sourcePath": "/Users/dougchenli/truffle/FairTradeExt/contracts/FairTradeExtBsl.sol",
  "compiler": {
    "name": "solc",
    "version": "0.5.16+commit.9c3226ce.Emscripten.clang"
  },
  "schemaVersion": "3.4.1",
  "updatedAt": "2023-10-10T00:34:33.338Z",
  "networkType": "ethereum",
  "devdoc": {
    "methods": {
      "getContract(bytes32)": {
        "details": "Get contract details.",
        "params": {
          "_contractId": "HTLC contract id return All parameters in struct LockContract for _contractId HTLC"
        }
      },
      "newContract(address,address,uint256,uint256,uint256)": {
        "details": "Sender sets up a new hash time lock contract depositing the ETH and providing the reciever lock terms.",
        "params": {
          "_receiver": "Receiver of the ETH.",
          "_seller": "Seller of the data.",
          "_sk1x": ", _sk1y The calculated results based on sk1 which was given during the negotiation phase.",
          "_timelock": "UNIX epoch seconds time that the lock expires at.                 Refunds can be made after this time."
        },
        "return": "contractId Id of the new HTLC. This is needed for subsequent                   calls."
      },
      "refund(bytes32)": {
        "details": "Called by the sender if there was no withdraw AND the time lock has expired. This will refund the contract amount.",
        "params": {
          "_contractId": "Id of HTLC to refund from."
        },
        "return": "bool true on success"
      },
      "withdraw(bytes32,uint256)": {
        "details": "Called by the receiver once they know sk2. This will transfer the locked funds to their address.",
        "params": {
          "_contractId": "Id of the HTLC.",
          "_sk2": "G(X,Y)**_sk2 should equal to (sk1x,sk1y)."
        },
        "return": "bool true on success"
      }
    },
    "title": "Hashed Timelock Contracts (HTLCs) on Ethereum ETH. * This contract provides a way to create and keep HTLCs for ETH. * See FairTradeExtERC20.sol for a contract that provides the same functions for ERC20 tokens. * Protocol: *  1) newContract(receiver, sk1, sk1y, timelock) - a sender calls this to create     a new HTLC and gets back a 32 byte contract id 2) withdraw(contractId, sk2) - once the receiver knows sk2      they can claim the ETH with this function 3) refund() - after timelock has expired and if the receiver did not     withdraw funds the sender / creator of the HTLC can get their ETH     back with this function."
  },
  "userdoc": {
    "methods": {}
  }
}