{
  "contractName": "TestHash",
  "abi": [
    {
      "anonymous": false,
      "inputs": [
        {
          "indexed": false,
          "internalType": "uint256",
          "name": "x",
          "type": "uint256"
        }
      ],
      "name": "CalLog",
      "type": "event"
    },
    {
      "anonymous": false,
      "inputs": [
        {
          "indexed": false,
          "internalType": "uint256",
          "name": "x1",
          "type": "uint256"
        },
        {
          "indexed": false,
          "internalType": "uint256",
          "name": "x2",
          "type": "uint256"
        }
      ],
      "name": "ResultLog",
      "type": "event"
    },
    {
      "anonymous": false,
      "inputs": [
        {
          "indexed": false,
          "internalType": "uint256",
          "name": "sig",
          "type": "uint256"
        },
        {
          "indexed": false,
          "internalType": "uint256",
          "name": "r",
          "type": "uint256"
        }
      ],
      "name": "SigLog",
      "type": "event"
    },
    {
      "constant": true,
      "inputs": [],
      "name": "AA",
      "outputs": [
        {
          "internalType": "uint256",
          "name": "",
          "type": "uint256"
        }
      ],
      "payable": false,
      "stateMutability": "view",
      "type": "function"
    },
    {
      "constant": true,
      "inputs": [],
      "name": "BB",
      "outputs": [
        {
          "internalType": "uint256",
          "name": "",
          "type": "uint256"
        }
      ],
      "payable": false,
      "stateMutability": "view",
      "type": "function"
    },
    {
      "constant": true,
      "inputs": [],
      "name": "GX",
      "outputs": [
        {
          "internalType": "uint256",
          "name": "",
          "type": "uint256"
        }
      ],
      "payable": false,
      "stateMutability": "view",
      "type": "function"
    },
    {
      "constant": true,
      "inputs": [],
      "name": "GY",
      "outputs": [
        {
          "internalType": "uint256",
          "name": "",
          "type": "uint256"
        }
      ],
      "payable": false,
      "stateMutability": "view",
      "type": "function"
    },
    {
      "constant": true,
      "inputs": [],
      "name": "NN",
      "outputs": [
        {
          "internalType": "uint256",
          "name": "",
          "type": "uint256"
        }
      ],
      "payable": false,
      "stateMutability": "view",
      "type": "function"
    },
    {
      "constant": true,
      "inputs": [],
      "name": "PP",
      "outputs": [
        {
          "internalType": "uint256",
          "name": "",
          "type": "uint256"
        }
      ],
      "payable": false,
      "stateMutability": "view",
      "type": "function"
    },
    {
      "constant": true,
      "inputs": [],
      "name": "qx",
      "outputs": [
        {
          "internalType": "uint256",
          "name": "",
          "type": "uint256"
        }
      ],
      "payable": false,
      "stateMutability": "view",
      "type": "function"
    },
    {
      "constant": true,
      "inputs": [],
      "name": "qy",
      "outputs": [
        {
          "internalType": "uint256",
          "name": "",
          "type": "uint256"
        }
      ],
      "payable": false,
      "stateMutability": "view",
      "type": "function"
    },
    {
      "constant": true,
      "inputs": [],
      "name": "res_x",
      "outputs": [
        {
          "internalType": "uint256",
          "name": "",
          "type": "uint256"
        }
      ],
      "payable": false,
      "stateMutability": "view",
      "type": "function"
    },
    {
      "constant": true,
      "inputs": [],
      "name": "sk",
      "outputs": [
        {
          "internalType": "uint256",
          "name": "",
          "type": "uint256"
        }
      ],
      "payable": false,
      "stateMutability": "view",
      "type": "function"
    },
    {
      "constant": true,
      "inputs": [
        {
          "internalType": "bytes32",
          "name": "_x",
          "type": "bytes32"
        }
      ],
      "name": "CalHash",
      "outputs": [
        {
          "internalType": "bytes32",
          "name": "hashval",
          "type": "bytes32"
        }
      ],
      "payable": false,
      "stateMutability": "pure",
      "type": "function"
    },
    {
      "constant": false,
      "inputs": [
        {
          "internalType": "address payable",
          "name": "_sender",
          "type": "address"
        },
        {
          "internalType": "uint256",
          "name": "privKey",
          "type": "uint256"
        }
      ],
      "name": "derivePubKey",
      "outputs": [
        {
          "internalType": "uint256",
          "name": "qx",
          "type": "uint256"
        },
        {
          "internalType": "uint256",
          "name": "qy",
          "type": "uint256"
        }
      ],
      "payable": true,
      "stateMutability": "payable",
      "type": "function"
    },
    {
      "constant": false,
      "inputs": [
        {
          "internalType": "address payable",
          "name": "_sender",
          "type": "address"
        },
        {
          "internalType": "uint256",
          "name": "sk2",
          "type": "uint256"
        }
      ],
      "name": "KeyGen",
      "outputs": [
        {
          "internalType": "uint256",
          "name": "a",
          "type": "uint256"
        },
        {
          "internalType": "uint256",
          "name": "b",
          "type": "uint256"
        }
      ],
      "payable": true,
      "stateMutability": "payable",
      "type": "function"
    },
    {
      "constant": false,
      "inputs": [
        {
          "internalType": "address payable",
          "name": "_sender",
          "type": "address"
        },
        {
          "internalType": "uint256",
          "name": "_r2",
          "type": "uint256"
        },
        {
          "internalType": "string",
          "name": "_m2",
          "type": "string"
        },
        {
          "internalType": "uint256",
          "name": "_s2",
          "type": "uint256"
        }
      ],
      "name": "SigVerify",
      "outputs": [
        {
          "internalType": "uint256",
          "name": "res_x1",
          "type": "uint256"
        }
      ],
      "payable": true,
      "stateMutability": "payable",
      "type": "function"
    },
    {
      "constant": false,
      "inputs": [
        {
          "internalType": "address payable",
          "name": "_sender",
          "type": "address"
        },
        {
          "internalType": "uint256",
          "name": "_k",
          "type": "uint256"
        },
        {
          "internalType": "string",
          "name": "_m2",
          "type": "string"
        }
      ],
      "name": "SigGen",
      "outputs": [
        {
          "internalType": "uint256",
          "name": "_s",
          "type": "uint256"
        },
        {
          "internalType": "uint256",
          "name": "_r",
          "type": "uint256"
        }
      ],
      "payable": true,
      "stateMutability": "payable",
      "type": "function"
    },
    {
      "constant": true,
      "inputs": [
        {
          "internalType": "bytes32[]",
          "name": "leaves",
          "type": "bytes32[]"
        },
        {
          "internalType": "uint256",
          "name": "treeSize",
          "type": "uint256"
        }
      ],
      "name": "hash",
      "outputs": [
        {
          "internalType": "bytes32",
          "name": "",
          "type": "bytes32"
        }
      ],
      "payable": false,
      "stateMutability": "pure",
      "type": "function"
    }
  ],
  "bytecode": "0x608060405234801561001057600080fd5b50611e63806100206000396000f3fe6080604052600436106100f35760003560e01c8063910c85611161008a578063bb89d19911610059578063bb89d1991461032c578063cf1846bc14610357578063eeeac01e14610387578063f0a90520146103b2576100f3565b8063910c85611461027a5780639870e2a4146102ab578063997da8d4146102d6578063b2e5c52714610301576100f3565b80635727dc5c116100c65780635727dc5c146101bc5780636cd03d5d146101e75780637a308a4c14610212578063838930641461023d576100f3565b806303a507be146100f85780631ee815d31461012357806338ac453f1461015457806347e6814c14610191575b600080fd5b34801561010457600080fd5b5061010d6103e3565b60405161011a9190611c47565b60405180910390f35b61013d6004803603610138919081019061171c565b610407565b60405161014b929190611c62565b60405180910390f35b34801561016057600080fd5b5061017b6004803603610176919081019061183a565b6104c6565b6040516101889190611b6c565b60405180910390f35b34801561019d57600080fd5b506101a6610591565b6040516101b39190611c47565b60405180910390f35b3480156101c857600080fd5b506101d16105b5565b6040516101de9190611c47565b60405180910390f35b3480156101f357600080fd5b506101fc6105ba565b6040516102099190611c47565b60405180910390f35b34801561021e57600080fd5b506102276105de565b6040516102349190611c47565b60405180910390f35b34801561024957600080fd5b50610264600480360361025f919081019061188e565b610602565b6040516102719190611b6c565b60405180910390f35b610294600480360361028f919081019061171c565b61067d565b6040516102a2929190611c62565b60405180910390f35b3480156102b757600080fd5b506102c06107c8565b6040516102cd9190611c47565b60405180910390f35b3480156102e257600080fd5b506102eb6107ec565b6040516102f89190611c47565b60405180910390f35b34801561030d57600080fd5b506103166107f1565b6040516103239190611c47565b60405180910390f35b34801561033857600080fd5b50610341610815565b60405161034e9190611c47565b60405180910390f35b610371600480360361036c91908101906117bf565b61081a565b60405161037e9190611c47565b60405180910390f35b34801561039357600080fd5b5061039c610b36565b6040516103a99190611c47565b60405180910390f35b6103cc60048036036103c79190810190611758565b610b5a565b6040516103da929190611c62565b60405180910390f35b7f79be667ef9dcbbac55a06295ce870b07029bfcdb2dce28d959f2815b16f8179881565b600080610478837f79be667ef9dcbbac55a06295ce870b07029bfcdb2dce28d959f2815b16f817987f483ada7726a3c4655da4fbfc0e1108a8fd17b448a68554199c47d08ffb10d4b860007ffffffffffffffffffffffffffffffffffffffffffffffffffffffffefffffc2f610d75565b80925081935050507fa59570cb42515adda74660b7faf5d583fdff47127b7af19549d5bde84cc8463282826040516104b1929190611c62565b60405180910390a18181915091509250929050565b60005b600182111561057457600080905060008090505b83811015610560578481815181106104f157fe5b602002602001015185600183018151811061050857fe5b6020026020010151604051602001610521929190611b12565b6040516020818303038152906040528051906020012085838151811061054357fe5b6020026020010181815250506001820191506002810190506104dd565b506002838161056b57fe5b049250506104c9565b8260008151811061058157fe5b6020026020010151905092915050565b7fe493dbf1c10d80f3581e4904930b1404cc6c13900ee0758474fa94abe8c4cd1381565b600781565b7f51ed993ea0d455b75642e2098ea51448d967ae33bfbdfe40cfe97bdc4773992281565b7f483ada7726a3c4655da4fbfc0e1108a8fd17b448a68554199c47d08ffb10d4b881565b60006002826040516020016106179190611af7565b6040516020818303038152906040526040516106339190611b3e565b602060405180830381855afa158015610650573d6000803e3d6000fd5b5050506040513d601f19601f8201168201806040525061067391908101906118b7565b9050809050919050565b60008060008060007ff9308a019258c31049344f85f89d5229b531c845836f99b08601f113bce036f9905060007f388f7b0f632de8140fe337e62a37f3566500a99934c2231b6cb9fd7584b8e672905061073b877f79be667ef9dcbbac55a06295ce870b07029bfcdb2dce28d959f2815b16f817987f483ada7726a3c4655da4fbfc0e1108a8fd17b448a68554199c47d08ffb10d4b860007ffffffffffffffffffffffffffffffffffffffffffffffffffffffffefffffc2f610d75565b80945081955050508382146107605760008081915080905095509550505050506107c1565b82811461077d5760008081915080905095509550505050506107c1565b7fa59570cb42515adda74660b7faf5d583fdff47127b7af19549d5bde84cc8463284846040516107ae929190611c62565b60405180910390a1838395509550505050505b9250929050565b7ffffffffffffffffffffffffffffffffebaaedce6af48a03bbfd25e8cd036414181565b600081565b7f3198f2e263d08e4f6451f9046061369a53f71411b4450c89f66d082186382ff781565b600481565b6000808360405160200161082e9190611b55565b60405160208183030381529060405280519060200120905060008160001c90507ffffffffffffffffffffffffffffffffebaaedce6af48a03bbfd25e8cd03641418111156108b1576040517f08c379a00000000000000000000000000000000000000000000000000000000081526004016108a890611be7565b60405180910390fd5b60006108dd857ffffffffffffffffffffffffffffffffebaaedce6af48a03bbfd25e8cd0364141610daf565b90507ffffffffffffffffffffffffffffffffebaaedce6af48a03bbfd25e8cd0364141818161090857fe5b0690507ffffffffffffffffffffffffffffffffebaaedce6af48a03bbfd25e8cd03641418183028161093657fe5b0691507ffffffffffffffffffffffffffffffffebaaedce6af48a03bbfd25e8cd03641418188028161096457fe5b0690506000806109d8847f79be667ef9dcbbac55a06295ce870b07029bfcdb2dce28d959f2815b16f817987f483ada7726a3c4655da4fbfc0e1108a8fd17b448a68554199c47d08ffb10d4b860007ffffffffffffffffffffffffffffffffffffffffffffffffffffffffefffffc2f610d75565b8092508193505050610a4e837fe493dbf1c10d80f3581e4904930b1404cc6c13900ee0758474fa94abe8c4cd137f51ed993ea0d455b75642e2098ea51448d967ae33bfbdfe40cfe97bdc4773992260007ffffffffffffffffffffffffffffffffffffffffffffffffffffffffefffffc2f610d75565b8094508195505050610a858282868660007ffffffffffffffffffffffffffffffffffffffffffffffffffffffffefffffc2f610e74565b80925081935050507f69cdcc8b46fb2a4eeb190605ec1050eca96ec492bfc34f0b345b476111daaada82604051610abc9190611c47565b60405180910390a17f3198f2e263d08e4f6451f9046061369a53f71411b4450c89f66d082186382ff78214610b26576040517f08c379a0000000000000000000000000000000000000000000000000000000008152600401610b1d90611c27565b60405180910390fd5b8195505050505050949350505050565b7ffffffffffffffffffffffffffffffffffffffffffffffffffffffffefffffc2f81565b600080600083604051602001610b709190611b55565b60405160208183030381529060405280519060200120905060008160001c90506000610bbc877ffffffffffffffffffffffffffffffffebaaedce6af48a03bbfd25e8cd0364141610daf565b9050600080600080610c328b7f79be667ef9dcbbac55a06295ce870b07029bfcdb2dce28d959f2815b16f817987f483ada7726a3c4655da4fbfc0e1108a8fd17b448a68554199c47d08ffb10d4b860007ffffffffffffffffffffffffffffffffffffffffffffffffffffffffefffffc2f610d75565b80945081955050507ffffffffffffffffffffffffffffffffebaaedce6af48a03bbfd25e8cd03641418481610c6357fe5b0691506000821415610caa576040517f08c379a0000000000000000000000000000000000000000000000000000000008152600401610ca190611ba7565b60405180910390fd5b60048202905085810190507ffffffffffffffffffffffffffffffffebaaedce6af48a03bbfd25e8cd036414185820281610ce057fe5b0690506000811415610d27576040517f08c379a0000000000000000000000000000000000000000000000000000000008152600401610d1e90611b87565b60405180910390fd5b7fb1d085b0a31081e1d3292afdb08e38a1c9f2bf199a3ea63c389ecfbf3d3b9cf28183604051610d58929190611c62565b60405180910390a180829850985050505050505050935093915050565b6000806000806000610d8c8a8a8a60018b8b610f12565b925092509250610d9e83838389610fb7565b945094505050509550959350505050565b6000808314158015610dc15750818314155b8015610dce575060008214155b610e0d576040517f08c379a0000000000000000000000000000000000000000000000000000000008152600401610e0490611c07565b60405180910390fd5b6000809050600060019050600084905060005b60008714610e6757868281610e3157fe5b049050828680610e3d57fe5b8780610e4557fe5b8584098803860880945081955050508687820283038098508193505050610e20565b8394505050505092915050565b600080600080905060008090506000809050888b1415610ed55760008680610e9857fe5b898c081415610eb65760008081915080905094509450505050610f07565b610ec48b8b60018a8a611012565b809350819450829550505050610ef3565b610ee68b8b60018c8c60018c611131565b8093508194508295505050505b610eff83838389610fb7565b945094505050505b965096945050505050565b600080600080891415610f2d57878787925092509250610fab565b6000899050600080905060008090506000600190505b60008414610f9d5760006001851614610f7257610f658383838f8f8f8e611131565b8093508194508295505050505b60028481610f7c57fe5b049350610f8c8c8c8c8c8c611012565b809c50819d50829e50505050610f43565b828282965096509650505050505b96509650969350505050565b6000806000610fc68585610daf565b905060008480610fd257fe5b828309905060008580610fe157fe5b828a09905060008680610ff057fe5b8780610ff857fe5b8486098a0990508181955095505050505094509492505050565b60008060008086141561102d57878787925092509250611126565b6000848061103757fe5b898a0990506000858061104657fe5b898a0990506000868061105557fe5b898a0990506000878061106457fe5b888061106c57fe5b848e0960040990506000888061107e57fe5b898061108657fe5b8a8061108e57fe5b8586098c098a8061109b57fe5b8760030908905088806110aa57fe5b89806110b257fe5b8384088a038a806110bf57fe5b83840908945088806110cd57fe5b89806110d557fe5b8a806110dd57fe5b8687096008098a038a806110ed57fe5b8b806110f557fe5b888d0386088409089350888061110757fe5b898061110f57fe5b8c8e09600209925084848497509750975050505050505b955095509592505050565b6000806000808a1480156111455750600089145b15611158578686869250925092506115c2565b6000871480156111685750600086145b1561117b578989899250925092506115c2565b6111836115cf565b848061118b57fe5b898a098160006004811061119b57fe5b60200201818152505084806111ac57fe5b816000600481106111b957fe5b60200201518a09816001600481106111cd57fe5b60200201818152505084806111de57fe5b868709816002600481106111ee57fe5b60200201818152505084806111ff57fe5b8160026004811061120c57fe5b602002015187098160036004811061122057fe5b6020020181815250506040518060800160405280868061123c57fe5b8360026004811061124957fe5b60200201518e098152602001868061125d57fe5b8360036004811061126a57fe5b60200201518d098152602001868061127e57fe5b8360006004811061128b57fe5b60200201518b098152602001868061129f57fe5b836001600481106112ac57fe5b60200201518a098152509050806002600481106112c557fe5b6020020151816000600481106112d757fe5b602002015114158061130b5750806003600481106112f157fe5b60200201518160016004811061130357fe5b602002015114155b61134a576040517f08c379a000000000000000000000000000000000000000000000000000000000815260040161134190611bc7565b60405180910390fd5b6113526115cf565b858061135a57fe5b8260006004811061136757fe5b602002015187038360026004811061137b57fe5b6020020151088160006004811061138e57fe5b602002018181525050858061139f57fe5b826001600481106113ac57fe5b60200201518703836003600481106113c057fe5b602002015108816001600481106113d357fe5b60200201818152505085806113e457fe5b816000600481106113f157fe5b60200201518260006004811061140357fe5b6020020151098160026004811061141657fe5b602002018181525050858061142757fe5b8160006004811061143457fe5b60200201518260026004811061144657fe5b6020020151098160036004811061145957fe5b6020020181815250506000868061146c57fe5b8260036004811061147957fe5b60200201518803888061148857fe5b8460016004811061149557fe5b6020020151856001600481106114a757fe5b60200201510908905086806114b857fe5b87806114c057fe5b88806114c857fe5b846002600481106114d557fe5b6020020151866000600481106114e757fe5b6020020151096002098803820890506000878061150057fe5b888061150857fe5b838a038a8061151357fe5b8660026004811061152057fe5b60200201518860006004811061153257fe5b602002015109088460016004811061154657fe5b6020020151099050878061155657fe5b888061155e57fe5b8460036004811061156b57fe5b60200201518660016004811061157d57fe5b6020020151098903820890506000888061159357fe5b898061159b57fe5b8b8f09856000600481106115ab57fe5b602002015109905082828297509750975050505050505b9750975097945050505050565b6040518060800160405280600490602082028038833980820191505090505090565b60008135905061160081611ddb565b92915050565b600082601f83011261161757600080fd5b813561162a61162582611cb8565b611c8b565b9150818183526020840193506020810190508385602084028201111561164f57600080fd5b60005b8381101561167f57816116658882611689565b845260208401935060208301925050600181019050611652565b5050505092915050565b60008135905061169881611df2565b92915050565b6000815190506116ad81611df2565b92915050565b600082601f8301126116c457600080fd5b81356116d76116d282611ce0565b611c8b565b915080825260208301602083018583830111156116f357600080fd5b6116fe838284611d8f565b50505092915050565b60008135905061171681611e09565b92915050565b6000806040838503121561172f57600080fd5b600061173d858286016115f1565b925050602061174e85828601611707565b9150509250929050565b60008060006060848603121561176d57600080fd5b600061177b868287016115f1565b935050602061178c86828701611707565b925050604084013567ffffffffffffffff8111156117a957600080fd5b6117b5868287016116b3565b9150509250925092565b600080600080608085870312156117d557600080fd5b60006117e3878288016115f1565b94505060206117f487828801611707565b935050604085013567ffffffffffffffff81111561181157600080fd5b61181d878288016116b3565b925050606061182e87828801611707565b91505092959194509250565b6000806040838503121561184d57600080fd5b600083013567ffffffffffffffff81111561186757600080fd5b61187385828601611606565b925050602061188485828601611707565b9150509250929050565b6000602082840312156118a057600080fd5b60006118ae84828501611689565b91505092915050565b6000602082840312156118c957600080fd5b60006118d78482850161169e565b91505092915050565b6118e981611d5b565b82525050565b6119006118fb82611d5b565b611dd1565b82525050565b600061191182611d0c565b61191b8185611d22565b935061192b818560208601611d9e565b80840191505092915050565b600061194282611d17565b61194c8185611d3e565b935061195c818560208601611d9e565b80840191505092915050565b6000611975601d83611d2d565b91507f6661696c20746f2063616c63756c61746520732c206368616e6765206b0000006000830152602082019050919050565b60006119b5601783611d2d565b91507f696e76616c6964206b2c2063686f6f736520616761696e0000000000000000006000830152602082019050919050565b60006119f5601e83611d2d565b91507f557365206a6163446f75626c652066756e6374696f6e20696e737465616400006000830152602082019050919050565b6000611a35601083611d2d565b91507f63686f6f736520616e6f74686572206d000000000000000000000000000000006000830152602082019050919050565b6000611a75600e83611d2d565b91507f496e76616c6964206e756d6265720000000000000000000000000000000000006000830152602082019050919050565b6000611ab5601783611d2d565b91507f5369676e617475726520646f65736e2774206d617463680000000000000000006000830152602082019050919050565b611af181611d85565b82525050565b6000611b0382846118ef565b60208201915081905092915050565b6000611b1e82856118ef565b602082019150611b2e82846118ef565b6020820191508190509392505050565b6000611b4a8284611906565b915081905092915050565b6000611b618284611937565b915081905092915050565b6000602082019050611b8160008301846118e0565b92915050565b60006020820190508181036000830152611ba081611968565b9050919050565b60006020820190508181036000830152611bc0816119a8565b9050919050565b60006020820190508181036000830152611be0816119e8565b9050919050565b60006020820190508181036000830152611c0081611a28565b9050919050565b60006020820190508181036000830152611c2081611a68565b9050919050565b60006020820190508181036000830152611c4081611aa8565b9050919050565b6000602082019050611c5c6000830184611ae8565b92915050565b6000604082019050611c776000830185611ae8565b611c846020830184611ae8565b9392505050565b6000604051905081810181811067ffffffffffffffff82111715611cae57600080fd5b8060405250919050565b600067ffffffffffffffff821115611ccf57600080fd5b602082029050602081019050919050565b600067ffffffffffffffff821115611cf757600080fd5b601f19601f8301169050602081019050919050565b600081519050919050565b600081519050919050565b600081905092915050565b600082825260208201905092915050565b600081905092915050565b6000611d5482611d65565b9050919050565b6000819050919050565b600073ffffffffffffffffffffffffffffffffffffffff82169050919050565b6000819050919050565b82818337600083830152505050565b60005b83811015611dbc578082015181840152602081019050611da1565b83811115611dcb576000848401525b50505050565b6000819050919050565b611de481611d49565b8114611def57600080fd5b50565b611dfb81611d5b565b8114611e0657600080fd5b50565b611e1281611d85565b8114611e1d57600080fd5b5056fea365627a7a72315820b38e4cedfe441c7902ec01b3d3563efc8c1445d49e91127d989c82f8384808896c6578706572696d656e74616cf564736f6c63430005100040",
  "source": "pragma solidity ^0.5.0;\npragma experimental ABIEncoderV2;\n\n\nimport \"./EllipticCurve.sol\";\n\ncontract TestHash {\n    function CalHash(bytes32 _x) external pure returns (bytes32 hashval) {\n        hashval = sha256(abi.encodePacked(_x)) ;\n        return hashval;\n    }\n\n    uint256 public constant GX = 0x79BE667EF9DCBBAC55A06295CE870B07029BFCDB2DCE28D959F2815B16F81798;\n    uint256 public constant GY = 0x483ADA7726A3C4655DA4FBFC0E1108A8FD17B448A68554199C47D08FFB10D4B8;\n    uint256 public constant AA = 0;\n    uint256 public constant BB = 7;\n    uint256 public constant PP = 0xFFFFFFFFFFFFFFFFFFFFFFFFFFFFFFFFFFFFFFFFFFFFFFFFFFFFFFFEFFFFFC2F;\n    uint256 public constant NN = 115792089237316195423570985008687907852837564279074904382605163141518161494337;    //order of secp256k1\n    uint256 public constant sk = 4;\n    uint256 public constant qx = 103388573995635080359749164254216598308788835304023601477803095234286494993683;    //public key pair (x,y)\n    uint256 public constant qy = 37057141145242123013015316630864329550140216928701153669873286428255828810018;\n    uint256 public constant res_x = 22433566660501949336591728236966687972342496606863864686753372370377308123127;\n    //uint256 public constant sk1x = 112711660439710606056748659173929673102114977341539408544630613555209775888121;\n    //uint256 public constant sk1y = 25583027980570883691656905877401976406448868254816295069919888960541586679410;\n    //bytes32[] public val = [bytes32(\"0xbc49c6c0d844e7c2d3b7cf2e807335db306f0338517a1e83cb119184ea7e32a1\"),\"0xeccf192987704a2cfe51a587aa20b3c88396e498847504b4903c49767914b8d9\"];\n\n\n    event ResultLog(uint256 x1, uint256 x2);\n    event SigLog(uint256 sig, uint256 r);\n    event CalLog(uint256 x);\n\n    function derivePubKey(address payable _sender, uint256 privKey) public payable returns(uint256 qx, uint256 qy) {\n    (qx, qy) = EllipticCurve.ecMul(\n      privKey,\n      GX,\n      GY,\n      AA,\n      PP\n    );\n    emit ResultLog(qx, qy);\n    return(qx, qy);\n    }\n\n    function KeyGen(address payable _sender, uint256 sk2) \n    external \n    payable \n    returns (\n        uint256 a, \n        uint256 b) \n    {\n        uint256 sk2x;\n        uint256 sk2y;\n        uint256 sk1x = 112711660439710606056748659173929673102114977341539408544630613555209775888121;\n        uint256 sk1y = 25583027980570883691656905877401976406448868254816295069919888960541586679410;\n        //uint256 sk2 = 3;\n        (sk2x, sk2y) = EllipticCurve.ecMul(sk2,GX,GY,AA,PP);\n        if (sk1x != sk2x)\n            return(0,0);\n        if (sk1y != sk2y)\n            return(0,0);\n        emit ResultLog(sk2x, sk2y);\n        return (sk2x, sk2y);\n    }\n\n    function SigVerify(address payable _sender, uint256 _r2, string memory _m2, uint256 _s2) \n    public \n    payable \n    returns (uint256 res_x1)\n    {\n        bytes32 e = keccak256(abi.encodePacked(_m2));\n        uint256 z = uint256(e);\n        if (z > NN)\n            revert(\"choose another m\");\n        uint256 w = EllipticCurve.invMod(_s2,NN);\n        w = w % NN;\n        z = (z * w) % NN;\n        w = (_r2 * w) % NN;\n        uint256 x1;\n        uint256 y1;\n        (x1,y1) = EllipticCurve.ecMul(z,GX,GY,AA,PP); \n        (z,w) = EllipticCurve.ecMul(w,qx,qy,AA,PP); \n        (x1,y1) = EllipticCurve.ecAdd(x1,y1,z,w,AA,PP);\n        emit CalLog(x1);\n        //uint256 s2 = 109247258617027406760302683006541450594023277067167994168140084578855052108858;\n        if (x1 != res_x)\n            revert(\"Signature doesn't match\");\n        return(x1);\n    }\n    function SigGen(address payable _sender, uint256 _k, string memory _m2)\n    public \n    payable \n    returns (\n        uint256 _s,\n        uint256 _r)\n    {\n        bytes32 e = keccak256(abi.encodePacked(_m2));\n        uint256 z = uint256(e);\n        uint256 w = EllipticCurve.invMod(_k,NN);\n        uint256 xk;\n        uint256 yk;\n        uint256 r;\n        uint256 s;\n        (xk,yk) = EllipticCurve.ecMul(_k,GX,GY,AA,PP); \n        r = xk % NN;\n        if (r == 0)\n            revert(\"invalid k, choose again\");\n        s = r * sk;\n        s = s + z;\n        s = (s * w) % NN;\n        if (s == 0)\n            revert(\"fail to calculate s, change k\");\n        //uint256 s2 = 109247258617027406760302683006541450594023277067167994168140084578855052108858;\n        emit SigLog(s,r);\n        return (s,r);\n    }\n\n    function hash(\n        bytes32[] memory leaves,\n        uint treeSize\n    ) public pure returns (bytes32) {\n        while (treeSize > 1) {\n            uint j = 0;\n            for (uint i = 0; i < treeSize; i += 2) {\n                leaves[j] = keccak256(abi.encodePacked(leaves[i],leaves[i+1]));\n                j += 1;\n            }\n            treeSize = treeSize / 2;\n        }\n        //bytes32 val1 = 0xeccf192987704a2cfe51a587aa20b3c88396e498847504b4903c49767914b8d9;\n        //bytes32 val2 = 0xbc49c6c0d844e7c2d3b7cf2e807335db306f0338517a1e83cb119184ea7e32a1\n        //root shoulb be = 0x2b852d7a9a24064ab0f30ba58899be43f02a25ea55924d5e5b519067f09dd8a2;\n\n        return leaves[0];\n    }\n}\n//512 bytes32 example... lazy as I just repeated the first two 256 times...\n/*\n\"0xbc49c6c0d844e7c2d3b7cf2e807335db306f0338517a1e83cb119184ea7e32a1\",\"0xeccf192987704a2cfe51a587aa20b3c88396e498847504b4903c49767914b8d9\",\"0xbc49c6c0d844e7c2d3b7cf2e807335db306f0338517a1e83cb119184ea7e32a1\",\"0xeccf192987704a2cfe51a587aa20b3c88396e498847504b4903c49767914b8d9\",\"0xbc49c6c0d844e7c2d3b7cf2e807335db306f0338517a1e83cb119184ea7e32a1\",\"0xeccf192987704a2cfe51a587aa20b3c88396e498847504b4903c49767914b8d9\",\"0xbc49c6c0d844e7c2d3b7cf2e807335db306f0338517a1e83cb119184ea7e32a1\",\"0xeccf192987704a2cfe51a587aa20b3c88396e498847504b4903c49767914b8d9\",\"0xbc49c6c0d844e7c2d3b7cf2e807335db306f0338517a1e83cb119184ea7e32a1\",\"0xeccf192987704a2cfe51a587aa20b3c88396e498847504b4903c49767914b8d9\",\"0xbc49c6c0d844e7c2d3b7cf2e807335db306f0338517a1e83cb119184ea7e32a1\",\"0xeccf192987704a2cfe51a587aa20b3c88396e498847504b4903c49767914b8d9\",\"0xbc49c6c0d844e7c2d3b7cf2e807335db306f0338517a1e83cb119184ea7e32a1\",\"0xeccf192987704a2cfe51a587aa20b3c88396e498847504b4903c49767914b8d9\",\"0xbc49c6c0d844e7c2d3b7cf2e807335db306f0338517a1e83cb119184ea7e32a1\",\"0xeccf192987704a2cfe51a587aa20b3c88396e498847504b4903c49767914b8d9\",\"0xbc49c6c0d844e7c2d3b7cf2e807335db306f0338517a1e83cb119184ea7e32a1\",\"0xeccf192987704a2cfe51a587aa20b3c88396e498847504b4903c49767914b8d9\",\"0xbc49c6c0d844e7c2d3b7cf2e807335db306f0338517a1e83cb119184ea7e32a1\",\"0xeccf192987704a2cfe51a587aa20b3c88396e498847504b4903c49767914b8d9\",\"0xbc49c6c0d844e7c2d3b7cf2e807335db306f0338517a1e83cb119184ea7e32a1\",\"0xeccf192987704a2cfe51a587aa20b3c88396e498847504b4903c49767914b8d9\",\"0xbc49c6c0d844e7c2d3b7cf2e807335db306f0338517a1e83cb119184ea7e32a1\",\"0xeccf192987704a2cfe51a587aa20b3c88396e498847504b4903c49767914b8d9\",\"0xbc49c6c0d844e7c2d3b7cf2e807335db306f0338517a1e83cb119184ea7e32a1\",\"0xeccf192987704a2cfe51a587aa20b3c88396e498847504b4903c49767914b8d9\",\"0xbc49c6c0d844e7c2d3b7cf2e807335db306f0338517a1e83cb119184ea7e32a1\",\"0xeccf192987704a2cfe51a587aa20b3c88396e498847504b4903c49767914b8d9\",\"0xbc49c6c0d844e7c2d3b7cf2e807335db306f0338517a1e83cb119184ea7e32a1\",\"0xeccf192987704a2cfe51a587aa20b3c88396e498847504b4903c49767914b8d9\",\"0xbc49c6c0d844e7c2d3b7cf2e807335db306f0338517a1e83cb119184ea7e32a1\",\"0xeccf192987704a2cfe51a587aa20b3c88396e498847504b4903c49767914b8d9\",\"0xbc49c6c0d844e7c2d3b7cf2e807335db306f0338517a1e83cb119184ea7e32a1\",\"0xeccf192987704a2cfe51a587aa20b3c88396e498847504b4903c49767914b8d9\",\"0xbc49c6c0d844e7c2d3b7cf2e807335db306f0338517a1e83cb119184ea7e32a1\",\"0xeccf192987704a2cfe51a587aa20b3c88396e498847504b4903c49767914b8d9\",\"0xbc49c6c0d844e7c2d3b7cf2e807335db306f0338517a1e83cb119184ea7e32a1\",\"0xeccf192987704a2cfe51a587aa20b3c88396e498847504b4903c49767914b8d9\",\"0xbc49c6c0d844e7c2d3b7cf2e807335db306f0338517a1e83cb119184ea7e32a1\",\"0xeccf192987704a2cfe51a587aa20b3c88396e498847504b4903c49767914b8d9\",\"0xbc49c6c0d844e7c2d3b7cf2e807335db306f0338517a1e83cb119184ea7e32a1\",\"0xeccf192987704a2cfe51a587aa20b3c88396e498847504b4903c49767914b8d9\",\"0xbc49c6c0d844e7c2d3b7cf2e807335db306f0338517a1e83cb119184ea7e32a1\",\"0xeccf192987704a2cfe51a587aa20b3c88396e498847504b4903c49767914b8d9\",\"0xbc49c6c0d844e7c2d3b7cf2e807335db306f0338517a1e83cb119184ea7e32a1\",\"0xeccf192987704a2cfe51a587aa20b3c88396e498847504b4903c49767914b8d9\",\"0xbc49c6c0d844e7c2d3b7cf2e807335db306f0338517a1e83cb119184ea7e32a1\",\"0xeccf192987704a2cfe51a587aa20b3c88396e498847504b4903c49767914b8d9\",\"0xbc49c6c0d844e7c2d3b7cf2e807335db306f0338517a1e83cb119184ea7e32a1\",\"0xeccf192987704a2cfe51a587aa20b3c88396e498847504b4903c49767914b8d9\",\"0xbc49c6c0d844e7c2d3b7cf2e807335db306f0338517a1e83cb119184ea7e32a1\",\"0xeccf192987704a2cfe51a587aa20b3c88396e498847504b4903c49767914b8d9\",\"0xbc49c6c0d844e7c2d3b7cf2e807335db306f0338517a1e83cb119184ea7e32a1\",\"0xeccf192987704a2cfe51a587aa20b3c88396e498847504b4903c49767914b8d9\",\"0xbc49c6c0d844e7c2d3b7cf2e807335db306f0338517a1e83cb119184ea7e32a1\",\"0xeccf192987704a2cfe51a587aa20b3c88396e498847504b4903c49767914b8d9\",\"0xbc49c6c0d844e7c2d3b7cf2e807335db306f0338517a1e83cb119184ea7e32a1\",\"0xeccf192987704a2cfe51a587aa20b3c88396e498847504b4903c49767914b8d9\",\"0xbc49c6c0d844e7c2d3b7cf2e807335db306f0338517a1e83cb119184ea7e32a1\",\"0xeccf192987704a2cfe51a587aa20b3c88396e498847504b4903c49767914b8d9\",\"0xbc49c6c0d844e7c2d3b7cf2e807335db306f0338517a1e83cb119184ea7e32a1\",\"0xeccf192987704a2cfe51a587aa20b3c88396e498847504b4903c49767914b8d9\",\"0xbc49c6c0d844e7c2d3b7cf2e807335db306f0338517a1e83cb119184ea7e32a1\",\"0xeccf192987704a2cfe51a587aa20b3c88396e498847504b4903c49767914b8d9\",\"0xbc49c6c0d844e7c2d3b7cf2e807335db306f0338517a1e83cb119184ea7e32a1\",\"0xeccf192987704a2cfe51a587aa20b3c88396e498847504b4903c49767914b8d9\",\"0xbc49c6c0d844e7c2d3b7cf2e807335db306f0338517a1e83cb119184ea7e32a1\",\"0xeccf192987704a2cfe51a587aa20b3c88396e498847504b4903c49767914b8d9\",\"0xbc49c6c0d844e7c2d3b7cf2e807335db306f0338517a1e83cb119184ea7e32a1\",\"0xeccf192987704a2cfe51a587aa20b3c88396e498847504b4903c49767914b8d9\",\"0xbc49c6c0d844e7c2d3b7cf2e807335db306f0338517a1e83cb119184ea7e32a1\",\"0xeccf192987704a2cfe51a587aa20b3c88396e498847504b4903c49767914b8d9\",\"0xbc49c6c0d844e7c2d3b7cf2e807335db306f0338517a1e83cb119184ea7e32a1\",\"0xeccf192987704a2cfe51a587aa20b3c88396e498847504b4903c49767914b8d9\",\"0xbc49c6c0d844e7c2d3b7cf2e807335db306f0338517a1e83cb119184ea7e32a1\",\"0xeccf192987704a2cfe51a587aa20b3c88396e498847504b4903c49767914b8d9\",\"0xbc49c6c0d844e7c2d3b7cf2e807335db306f0338517a1e83cb119184ea7e32a1\",\"0xeccf192987704a2cfe51a587aa20b3c88396e498847504b4903c49767914b8d9\",\"0xbc49c6c0d844e7c2d3b7cf2e807335db306f0338517a1e83cb119184ea7e32a1\",\"0xeccf192987704a2cfe51a587aa20b3c88396e498847504b4903c49767914b8d9\",\"0xbc49c6c0d844e7c2d3b7cf2e807335db306f0338517a1e83cb119184ea7e32a1\",\"0xeccf192987704a2cfe51a587aa20b3c88396e498847504b4903c49767914b8d9\",\"0xbc49c6c0d844e7c2d3b7cf2e807335db306f0338517a1e83cb119184ea7e32a1\",\"0xeccf192987704a2cfe51a587aa20b3c88396e498847504b4903c49767914b8d9\",\"0xbc49c6c0d844e7c2d3b7cf2e807335db306f0338517a1e83cb119184ea7e32a1\",\"0xeccf192987704a2cfe51a587aa20b3c88396e498847504b4903c49767914b8d9\",\"0xbc49c6c0d844e7c2d3b7cf2e807335db306f0338517a1e83cb119184ea7e32a1\",\"0xeccf192987704a2cfe51a587aa20b3c88396e498847504b4903c49767914b8d9\",\"0xbc49c6c0d844e7c2d3b7cf2e807335db306f0338517a1e83cb119184ea7e32a1\",\"0xeccf192987704a2cfe51a587aa20b3c88396e498847504b4903c49767914b8d9\",\"0xbc49c6c0d844e7c2d3b7cf2e807335db306f0338517a1e83cb119184ea7e32a1\",\"0xeccf192987704a2cfe51a587aa20b3c88396e498847504b4903c49767914b8d9\",\"0xbc49c6c0d844e7c2d3b7cf2e807335db306f0338517a1e83cb119184ea7e32a1\",\"0xeccf192987704a2cfe51a587aa20b3c88396e498847504b4903c49767914b8d9\",\"0xbc49c6c0d844e7c2d3b7cf2e807335db306f0338517a1e83cb119184ea7e32a1\",\"0xeccf192987704a2cfe51a587aa20b3c88396e498847504b4903c49767914b8d9\",\"0xbc49c6c0d844e7c2d3b7cf2e807335db306f0338517a1e83cb119184ea7e32a1\",\"0xeccf192987704a2cfe51a587aa20b3c88396e498847504b4903c49767914b8d9\",\"0xbc49c6c0d844e7c2d3b7cf2e807335db306f0338517a1e83cb119184ea7e32a1\",\"0xeccf192987704a2cfe51a587aa20b3c88396e498847504b4903c49767914b8d9\",\"0xbc49c6c0d844e7c2d3b7cf2e807335db306f0338517a1e83cb119184ea7e32a1\",\"0xeccf192987704a2cfe51a587aa20b3c88396e498847504b4903c49767914b8d9\",\"0xbc49c6c0d844e7c2d3b7cf2e807335db306f0338517a1e83cb119184ea7e32a1\",\"0xeccf192987704a2cfe51a587aa20b3c88396e498847504b4903c49767914b8d9\",\"0xbc49c6c0d844e7c2d3b7cf2e807335db306f0338517a1e83cb119184ea7e32a1\",\"0xeccf192987704a2cfe51a587aa20b3c88396e498847504b4903c49767914b8d9\",\"0xbc49c6c0d844e7c2d3b7cf2e807335db306f0338517a1e83cb119184ea7e32a1\",\"0xeccf192987704a2cfe51a587aa20b3c88396e498847504b4903c49767914b8d9\",\"0xbc49c6c0d844e7c2d3b7cf2e807335db306f0338517a1e83cb119184ea7e32a1\",\"0xeccf192987704a2cfe51a587aa20b3c88396e498847504b4903c49767914b8d9\",\"0xbc49c6c0d844e7c2d3b7cf2e807335db306f0338517a1e83cb119184ea7e32a1\",\"0xeccf192987704a2cfe51a587aa20b3c88396e498847504b4903c49767914b8d9\",\"0xbc49c6c0d844e7c2d3b7cf2e807335db306f0338517a1e83cb119184ea7e32a1\",\"0xeccf192987704a2cfe51a587aa20b3c88396e498847504b4903c49767914b8d9\",\"0xbc49c6c0d844e7c2d3b7cf2e807335db306f0338517a1e83cb119184ea7e32a1\",\"0xeccf192987704a2cfe51a587aa20b3c88396e498847504b4903c49767914b8d9\",\"0xbc49c6c0d844e7c2d3b7cf2e807335db306f0338517a1e83cb119184ea7e32a1\",\"0xeccf192987704a2cfe51a587aa20b3c88396e498847504b4903c49767914b8d9\",\"0xbc49c6c0d844e7c2d3b7cf2e807335db306f0338517a1e83cb119184ea7e32a1\",\"0xeccf192987704a2cfe51a587aa20b3c88396e498847504b4903c49767914b8d9\",\"0xbc49c6c0d844e7c2d3b7cf2e807335db306f0338517a1e83cb119184ea7e32a1\",\"0xeccf192987704a2cfe51a587aa20b3c88396e498847504b4903c49767914b8d9\",\"0xbc49c6c0d844e7c2d3b7cf2e807335db306f0338517a1e83cb119184ea7e32a1\",\"0xeccf192987704a2cfe51a587aa20b3c88396e498847504b4903c49767914b8d9\",\"0xbc49c6c0d844e7c2d3b7cf2e807335db306f0338517a1e83cb119184ea7e32a1\",\"0xeccf192987704a2cfe51a587aa20b3c88396e498847504b4903c49767914b8d9\",\"0xbc49c6c0d844e7c2d3b7cf2e807335db306f0338517a1e83cb119184ea7e32a1\",\"0xeccf192987704a2cfe51a587aa20b3c88396e498847504b4903c49767914b8d9\",\"0xbc49c6c0d844e7c2d3b7cf2e807335db306f0338517a1e83cb119184ea7e32a1\",\"0xeccf192987704a2cfe51a587aa20b3c88396e498847504b4903c49767914b8d9\",\"0xbc49c6c0d844e7c2d3b7cf2e807335db306f0338517a1e83cb119184ea7e32a1\",\"0xeccf192987704a2cfe51a587aa20b3c88396e498847504b4903c49767914b8d9\",\"0xbc49c6c0d844e7c2d3b7cf2e807335db306f0338517a1e83cb119184ea7e32a1\",\"0xeccf192987704a2cfe51a587aa20b3c88396e498847504b4903c49767914b8d9\",\"0xbc49c6c0d844e7c2d3b7cf2e807335db306f0338517a1e83cb119184ea7e32a1\",\"0xeccf192987704a2cfe51a587aa20b3c88396e498847504b4903c49767914b8d9\",\"0xbc49c6c0d844e7c2d3b7cf2e807335db306f0338517a1e83cb119184ea7e32a1\",\"0xeccf192987704a2cfe51a587aa20b3c88396e498847504b4903c49767914b8d9\",\"0xbc49c6c0d844e7c2d3b7cf2e807335db306f0338517a1e83cb119184ea7e32a1\",\"0xeccf192987704a2cfe51a587aa20b3c88396e498847504b4903c49767914b8d9\",\"0xbc49c6c0d844e7c2d3b7cf2e807335db306f0338517a1e83cb119184ea7e32a1\",\"0xeccf192987704a2cfe51a587aa20b3c88396e498847504b4903c49767914b8d9\",\"0xbc49c6c0d844e7c2d3b7cf2e807335db306f0338517a1e83cb119184ea7e32a1\",\"0xeccf192987704a2cfe51a587aa20b3c88396e498847504b4903c49767914b8d9\",\"0xbc49c6c0d844e7c2d3b7cf2e807335db306f0338517a1e83cb119184ea7e32a1\",\"0xeccf192987704a2cfe51a587aa20b3c88396e498847504b4903c49767914b8d9\",\"0xbc49c6c0d844e7c2d3b7cf2e807335db306f0338517a1e83cb119184ea7e32a1\",\"0xeccf192987704a2cfe51a587aa20b3c88396e498847504b4903c49767914b8d9\",\"0xbc49c6c0d844e7c2d3b7cf2e807335db306f0338517a1e83cb119184ea7e32a1\",\"0xeccf192987704a2cfe51a587aa20b3c88396e498847504b4903c49767914b8d9\",\"0xbc49c6c0d844e7c2d3b7cf2e807335db306f0338517a1e83cb119184ea7e32a1\",\"0xeccf192987704a2cfe51a587aa20b3c88396e498847504b4903c49767914b8d9\",\"0xbc49c6c0d844e7c2d3b7cf2e807335db306f0338517a1e83cb119184ea7e32a1\",\"0xeccf192987704a2cfe51a587aa20b3c88396e498847504b4903c49767914b8d9\",\"0xbc49c6c0d844e7c2d3b7cf2e807335db306f0338517a1e83cb119184ea7e32a1\",\"0xeccf192987704a2cfe51a587aa20b3c88396e498847504b4903c49767914b8d9\",\"0xbc49c6c0d844e7c2d3b7cf2e807335db306f0338517a1e83cb119184ea7e32a1\",\"0xeccf192987704a2cfe51a587aa20b3c88396e498847504b4903c49767914b8d9\",\"0xbc49c6c0d844e7c2d3b7cf2e807335db306f0338517a1e83cb119184ea7e32a1\",\"0xeccf192987704a2cfe51a587aa20b3c88396e498847504b4903c49767914b8d9\",\"0xbc49c6c0d844e7c2d3b7cf2e807335db306f0338517a1e83cb119184ea7e32a1\",\"0xeccf192987704a2cfe51a587aa20b3c88396e498847504b4903c49767914b8d9\",\"0xbc49c6c0d844e7c2d3b7cf2e807335db306f0338517a1e83cb119184ea7e32a1\",\"0xeccf192987704a2cfe51a587aa20b3c88396e498847504b4903c49767914b8d9\",\"0xbc49c6c0d844e7c2d3b7cf2e807335db306f0338517a1e83cb119184ea7e32a1\",\"0xeccf192987704a2cfe51a587aa20b3c88396e498847504b4903c49767914b8d9\",\"0xbc49c6c0d844e7c2d3b7cf2e807335db306f0338517a1e83cb119184ea7e32a1\",\"0xeccf192987704a2cfe51a587aa20b3c88396e498847504b4903c49767914b8d9\",\"0xbc49c6c0d844e7c2d3b7cf2e807335db306f0338517a1e83cb119184ea7e32a1\",\"0xeccf192987704a2cfe51a587aa20b3c88396e498847504b4903c49767914b8d9\",\"0xbc49c6c0d844e7c2d3b7cf2e807335db306f0338517a1e83cb119184ea7e32a1\",\"0xeccf192987704a2cfe51a587aa20b3c88396e498847504b4903c49767914b8d9\",\"0xbc49c6c0d844e7c2d3b7cf2e807335db306f0338517a1e83cb119184ea7e32a1\",\"0xeccf192987704a2cfe51a587aa20b3c88396e498847504b4903c49767914b8d9\",\"0xbc49c6c0d844e7c2d3b7cf2e807335db306f0338517a1e83cb119184ea7e32a1\",\"0xeccf192987704a2cfe51a587aa20b3c88396e498847504b4903c49767914b8d9\",\"0xbc49c6c0d844e7c2d3b7cf2e807335db306f0338517a1e83cb119184ea7e32a1\",\"0xeccf192987704a2cfe51a587aa20b3c88396e498847504b4903c49767914b8d9\",\"0xbc49c6c0d844e7c2d3b7cf2e807335db306f0338517a1e83cb119184ea7e32a1\",\"0xeccf192987704a2cfe51a587aa20b3c88396e498847504b4903c49767914b8d9\",\"0xbc49c6c0d844e7c2d3b7cf2e807335db306f0338517a1e83cb119184ea7e32a1\",\"0xeccf192987704a2cfe51a587aa20b3c88396e498847504b4903c49767914b8d9\",\"0xbc49c6c0d844e7c2d3b7cf2e807335db306f0338517a1e83cb119184ea7e32a1\",\"0xeccf192987704a2cfe51a587aa20b3c88396e498847504b4903c49767914b8d9\",\"0xbc49c6c0d844e7c2d3b7cf2e807335db306f0338517a1e83cb119184ea7e32a1\",\"0xeccf192987704a2cfe51a587aa20b3c88396e498847504b4903c49767914b8d9\",\"0xbc49c6c0d844e7c2d3b7cf2e807335db306f0338517a1e83cb119184ea7e32a1\",\"0xeccf192987704a2cfe51a587aa20b3c88396e498847504b4903c49767914b8d9\",\"0xbc49c6c0d844e7c2d3b7cf2e807335db306f0338517a1e83cb119184ea7e32a1\",\"0xeccf192987704a2cfe51a587aa20b3c88396e498847504b4903c49767914b8d9\",\"0xbc49c6c0d844e7c2d3b7cf2e807335db306f0338517a1e83cb119184ea7e32a1\",\"0xeccf192987704a2cfe51a587aa20b3c88396e498847504b4903c49767914b8d9\",\"0xbc49c6c0d844e7c2d3b7cf2e807335db306f0338517a1e83cb119184ea7e32a1\",\"0xeccf192987704a2cfe51a587aa20b3c88396e498847504b4903c49767914b8d9\",\"0xbc49c6c0d844e7c2d3b7cf2e807335db306f0338517a1e83cb119184ea7e32a1\",\"0xeccf192987704a2cfe51a587aa20b3c88396e498847504b4903c49767914b8d9\",\"0xbc49c6c0d844e7c2d3b7cf2e807335db306f0338517a1e83cb119184ea7e32a1\",\"0xeccf192987704a2cfe51a587aa20b3c88396e498847504b4903c49767914b8d9\",\"0xbc49c6c0d844e7c2d3b7cf2e807335db306f0338517a1e83cb119184ea7e32a1\",\"0xeccf192987704a2cfe51a587aa20b3c88396e498847504b4903c49767914b8d9\",\"0xbc49c6c0d844e7c2d3b7cf2e807335db306f0338517a1e83cb119184ea7e32a1\",\"0xeccf192987704a2cfe51a587aa20b3c88396e498847504b4903c49767914b8d9\",\"0xbc49c6c0d844e7c2d3b7cf2e807335db306f0338517a1e83cb119184ea7e32a1\",\"0xeccf192987704a2cfe51a587aa20b3c88396e498847504b4903c49767914b8d9\",\"0xbc49c6c0d844e7c2d3b7cf2e807335db306f0338517a1e83cb119184ea7e32a1\",\"0xeccf192987704a2cfe51a587aa20b3c88396e498847504b4903c49767914b8d9\",\"0xbc49c6c0d844e7c2d3b7cf2e807335db306f0338517a1e83cb119184ea7e32a1\",\"0xeccf192987704a2cfe51a587aa20b3c88396e498847504b4903c49767914b8d9\",\"0xbc49c6c0d844e7c2d3b7cf2e807335db306f0338517a1e83cb119184ea7e32a1\",\"0xeccf192987704a2cfe51a587aa20b3c88396e498847504b4903c49767914b8d9\",\"0xbc49c6c0d844e7c2d3b7cf2e807335db306f0338517a1e83cb119184ea7e32a1\",\"0xeccf192987704a2cfe51a587aa20b3c88396e498847504b4903c49767914b8d9\",\"0xbc49c6c0d844e7c2d3b7cf2e807335db306f0338517a1e83cb119184ea7e32a1\",\"0xeccf192987704a2cfe51a587aa20b3c88396e498847504b4903c49767914b8d9\",\"0xbc49c6c0d844e7c2d3b7cf2e807335db306f0338517a1e83cb119184ea7e32a1\",\"0xeccf192987704a2cfe51a587aa20b3c88396e498847504b4903c49767914b8d9\",\"0xbc49c6c0d844e7c2d3b7cf2e807335db306f0338517a1e83cb119184ea7e32a1\",\"0xeccf192987704a2cfe51a587aa20b3c88396e498847504b4903c49767914b8d9\",\"0xbc49c6c0d844e7c2d3b7cf2e807335db306f0338517a1e83cb119184ea7e32a1\",\"0xeccf192987704a2cfe51a587aa20b3c88396e498847504b4903c49767914b8d9\",\"0xbc49c6c0d844e7c2d3b7cf2e807335db306f0338517a1e83cb119184ea7e32a1\",\"0xeccf192987704a2cfe51a587aa20b3c88396e498847504b4903c49767914b8d9\",\"0xbc49c6c0d844e7c2d3b7cf2e807335db306f0338517a1e83cb119184ea7e32a1\",\"0xeccf192987704a2cfe51a587aa20b3c88396e498847504b4903c49767914b8d9\",\"0xbc49c6c0d844e7c2d3b7cf2e807335db306f0338517a1e83cb119184ea7e32a1\",\"0xeccf192987704a2cfe51a587aa20b3c88396e498847504b4903c49767914b8d9\",\"0xbc49c6c0d844e7c2d3b7cf2e807335db306f0338517a1e83cb119184ea7e32a1\",\"0xeccf192987704a2cfe51a587aa20b3c88396e498847504b4903c49767914b8d9\",\"0xbc49c6c0d844e7c2d3b7cf2e807335db306f0338517a1e83cb119184ea7e32a1\",\"0xeccf192987704a2cfe51a587aa20b3c88396e498847504b4903c49767914b8d9\",\"0xbc49c6c0d844e7c2d3b7cf2e807335db306f0338517a1e83cb119184ea7e32a1\",\"0xeccf192987704a2cfe51a587aa20b3c88396e498847504b4903c49767914b8d9\",\"0xbc49c6c0d844e7c2d3b7cf2e807335db306f0338517a1e83cb119184ea7e32a1\",\"0xeccf192987704a2cfe51a587aa20b3c88396e498847504b4903c49767914b8d9\",\"0xbc49c6c0d844e7c2d3b7cf2e807335db306f0338517a1e83cb119184ea7e32a1\",\"0xeccf192987704a2cfe51a587aa20b3c88396e498847504b4903c49767914b8d9\",\"0xbc49c6c0d844e7c2d3b7cf2e807335db306f0338517a1e83cb119184ea7e32a1\",\"0xeccf192987704a2cfe51a587aa20b3c88396e498847504b4903c49767914b8d9\",\"0xbc49c6c0d844e7c2d3b7cf2e807335db306f0338517a1e83cb119184ea7e32a1\",\"0xeccf192987704a2cfe51a587aa20b3c88396e498847504b4903c49767914b8d9\",\"0xbc49c6c0d844e7c2d3b7cf2e807335db306f0338517a1e83cb119184ea7e32a1\",\"0xeccf192987704a2cfe51a587aa20b3c88396e498847504b4903c49767914b8d9\",\"0xbc49c6c0d844e7c2d3b7cf2e807335db306f0338517a1e83cb119184ea7e32a1\",\"0xeccf192987704a2cfe51a587aa20b3c88396e498847504b4903c49767914b8d9\",\"0xbc49c6c0d844e7c2d3b7cf2e807335db306f0338517a1e83cb119184ea7e32a1\",\"0xeccf192987704a2cfe51a587aa20b3c88396e498847504b4903c49767914b8d9\",\"0xbc49c6c0d844e7c2d3b7cf2e807335db306f0338517a1e83cb119184ea7e32a1\",\"0xeccf192987704a2cfe51a587aa20b3c88396e498847504b4903c49767914b8d9\",\"0xbc49c6c0d844e7c2d3b7cf2e807335db306f0338517a1e83cb119184ea7e32a1\",\"0xeccf192987704a2cfe51a587aa20b3c88396e498847504b4903c49767914b8d9\",\"0xbc49c6c0d844e7c2d3b7cf2e807335db306f0338517a1e83cb119184ea7e32a1\",\"0xeccf192987704a2cfe51a587aa20b3c88396e498847504b4903c49767914b8d9\",\"0xbc49c6c0d844e7c2d3b7cf2e807335db306f0338517a1e83cb119184ea7e32a1\",\"0xeccf192987704a2cfe51a587aa20b3c88396e498847504b4903c49767914b8d9\",\"0xbc49c6c0d844e7c2d3b7cf2e807335db306f0338517a1e83cb119184ea7e32a1\",\"0xeccf192987704a2cfe51a587aa20b3c88396e498847504b4903c49767914b8d9\",\"0xbc49c6c0d844e7c2d3b7cf2e807335db306f0338517a1e83cb119184ea7e32a1\",\"0xeccf192987704a2cfe51a587aa20b3c88396e498847504b4903c49767914b8d9\",\"0xbc49c6c0d844e7c2d3b7cf2e807335db306f0338517a1e83cb119184ea7e32a1\",\"0xeccf192987704a2cfe51a587aa20b3c88396e498847504b4903c49767914b8d9\",\"0xbc49c6c0d844e7c2d3b7cf2e807335db306f0338517a1e83cb119184ea7e32a1\",\"0xeccf192987704a2cfe51a587aa20b3c88396e498847504b4903c49767914b8d9\",\"0xbc49c6c0d844e7c2d3b7cf2e807335db306f0338517a1e83cb119184ea7e32a1\",\"0xeccf192987704a2cfe51a587aa20b3c88396e498847504b4903c49767914b8d9\",\"0xbc49c6c0d844e7c2d3b7cf2e807335db306f0338517a1e83cb119184ea7e32a1\",\"0xeccf192987704a2cfe51a587aa20b3c88396e498847504b4903c49767914b8d9\",\"0xbc49c6c0d844e7c2d3b7cf2e807335db306f0338517a1e83cb119184ea7e32a1\",\"0xeccf192987704a2cfe51a587aa20b3c88396e498847504b4903c49767914b8d9\",\"0xbc49c6c0d844e7c2d3b7cf2e807335db306f0338517a1e83cb119184ea7e32a1\",\"0xeccf192987704a2cfe51a587aa20b3c88396e498847504b4903c49767914b8d9\",\"0xbc49c6c0d844e7c2d3b7cf2e807335db306f0338517a1e83cb119184ea7e32a1\",\"0xeccf192987704a2cfe51a587aa20b3c88396e498847504b4903c49767914b8d9\",\"0xbc49c6c0d844e7c2d3b7cf2e807335db306f0338517a1e83cb119184ea7e32a1\",\"0xeccf192987704a2cfe51a587aa20b3c88396e498847504b4903c49767914b8d9\",\"0xbc49c6c0d844e7c2d3b7cf2e807335db306f0338517a1e83cb119184ea7e32a1\",\"0xeccf192987704a2cfe51a587aa20b3c88396e498847504b4903c49767914b8d9\",\"0xbc49c6c0d844e7c2d3b7cf2e807335db306f0338517a1e83cb119184ea7e32a1\",\"0xeccf192987704a2cfe51a587aa20b3c88396e498847504b4903c49767914b8d9\",\"0xbc49c6c0d844e7c2d3b7cf2e807335db306f0338517a1e83cb119184ea7e32a1\",\"0xeccf192987704a2cfe51a587aa20b3c88396e498847504b4903c49767914b8d9\",\"0xbc49c6c0d844e7c2d3b7cf2e807335db306f0338517a1e83cb119184ea7e32a1\",\"0xeccf192987704a2cfe51a587aa20b3c88396e498847504b4903c49767914b8d9\",\"0xbc49c6c0d844e7c2d3b7cf2e807335db306f0338517a1e83cb119184ea7e32a1\",\"0xeccf192987704a2cfe51a587aa20b3c88396e498847504b4903c49767914b8d9\",\"0xbc49c6c0d844e7c2d3b7cf2e807335db306f0338517a1e83cb119184ea7e32a1\",\"0xeccf192987704a2cfe51a587aa20b3c88396e498847504b4903c49767914b8d9\",\"0xbc49c6c0d844e7c2d3b7cf2e807335db306f0338517a1e83cb119184ea7e32a1\",\"0xeccf192987704a2cfe51a587aa20b3c88396e498847504b4903c49767914b8d9\",\"0xbc49c6c0d844e7c2d3b7cf2e807335db306f0338517a1e83cb119184ea7e32a1\",\"0xeccf192987704a2cfe51a587aa20b3c88396e498847504b4903c49767914b8d9\",\"0xbc49c6c0d844e7c2d3b7cf2e807335db306f0338517a1e83cb119184ea7e32a1\",\"0xeccf192987704a2cfe51a587aa20b3c88396e498847504b4903c49767914b8d9\",\"0xbc49c6c0d844e7c2d3b7cf2e807335db306f0338517a1e83cb119184ea7e32a1\",\"0xeccf192987704a2cfe51a587aa20b3c88396e498847504b4903c49767914b8d9\",\"0xbc49c6c0d844e7c2d3b7cf2e807335db306f0338517a1e83cb119184ea7e32a1\",\"0xeccf192987704a2cfe51a587aa20b3c88396e498847504b4903c49767914b8d9\",\"0xbc49c6c0d844e7c2d3b7cf2e807335db306f0338517a1e83cb119184ea7e32a1\",\"0xeccf192987704a2cfe51a587aa20b3c88396e498847504b4903c49767914b8d9\",\"0xbc49c6c0d844e7c2d3b7cf2e807335db306f0338517a1e83cb119184ea7e32a1\",\"0xeccf192987704a2cfe51a587aa20b3c88396e498847504b4903c49767914b8d9\",\"0xbc49c6c0d844e7c2d3b7cf2e807335db306f0338517a1e83cb119184ea7e32a1\",\"0xeccf192987704a2cfe51a587aa20b3c88396e498847504b4903c49767914b8d9\",\"0xbc49c6c0d844e7c2d3b7cf2e807335db306f0338517a1e83cb119184ea7e32a1\",\"0xeccf192987704a2cfe51a587aa20b3c88396e498847504b4903c49767914b8d9\",\"0xbc49c6c0d844e7c2d3b7cf2e807335db306f0338517a1e83cb119184ea7e32a1\",\"0xeccf192987704a2cfe51a587aa20b3c88396e498847504b4903c49767914b8d9\",\"0xbc49c6c0d844e7c2d3b7cf2e807335db306f0338517a1e83cb119184ea7e32a1\",\"0xeccf192987704a2cfe51a587aa20b3c88396e498847504b4903c49767914b8d9\",\"0xbc49c6c0d844e7c2d3b7cf2e807335db306f0338517a1e83cb119184ea7e32a1\",\"0xeccf192987704a2cfe51a587aa20b3c88396e498847504b4903c49767914b8d9\",\"0xbc49c6c0d844e7c2d3b7cf2e807335db306f0338517a1e83cb119184ea7e32a1\",\"0xeccf192987704a2cfe51a587aa20b3c88396e498847504b4903c49767914b8d9\",\"0xbc49c6c0d844e7c2d3b7cf2e807335db306f0338517a1e83cb119184ea7e32a1\",\"0xeccf192987704a2cfe51a587aa20b3c88396e498847504b4903c49767914b8d9\",\"0xbc49c6c0d844e7c2d3b7cf2e807335db306f0338517a1e83cb119184ea7e32a1\",\"0xeccf192987704a2cfe51a587aa20b3c88396e498847504b4903c49767914b8d9\",\"0xbc49c6c0d844e7c2d3b7cf2e807335db306f0338517a1e83cb119184ea7e32a1\",\"0xeccf192987704a2cfe51a587aa20b3c88396e498847504b4903c49767914b8d9\",\"0xbc49c6c0d844e7c2d3b7cf2e807335db306f0338517a1e83cb119184ea7e32a1\",\"0xeccf192987704a2cfe51a587aa20b3c88396e498847504b4903c49767914b8d9\",\"0xbc49c6c0d844e7c2d3b7cf2e807335db306f0338517a1e83cb119184ea7e32a1\",\"0xeccf192987704a2cfe51a587aa20b3c88396e498847504b4903c49767914b8d9\",\"0xbc49c6c0d844e7c2d3b7cf2e807335db306f0338517a1e83cb119184ea7e32a1\",\"0xeccf192987704a2cfe51a587aa20b3c88396e498847504b4903c49767914b8d9\",\"0xbc49c6c0d844e7c2d3b7cf2e807335db306f0338517a1e83cb119184ea7e32a1\",\"0xeccf192987704a2cfe51a587aa20b3c88396e498847504b4903c49767914b8d9\",\"0xbc49c6c0d844e7c2d3b7cf2e807335db306f0338517a1e83cb119184ea7e32a1\",\"0xeccf192987704a2cfe51a587aa20b3c88396e498847504b4903c49767914b8d9\",\"0xbc49c6c0d844e7c2d3b7cf2e807335db306f0338517a1e83cb119184ea7e32a1\",\"0xeccf192987704a2cfe51a587aa20b3c88396e498847504b4903c49767914b8d9\",\"0xbc49c6c0d844e7c2d3b7cf2e807335db306f0338517a1e83cb119184ea7e32a1\",\"0xeccf192987704a2cfe51a587aa20b3c88396e498847504b4903c49767914b8d9\",\"0xbc49c6c0d844e7c2d3b7cf2e807335db306f0338517a1e83cb119184ea7e32a1\",\"0xeccf192987704a2cfe51a587aa20b3c88396e498847504b4903c49767914b8d9\",\"0xbc49c6c0d844e7c2d3b7cf2e807335db306f0338517a1e83cb119184ea7e32a1\",\"0xeccf192987704a2cfe51a587aa20b3c88396e498847504b4903c49767914b8d9\",\"0xbc49c6c0d844e7c2d3b7cf2e807335db306f0338517a1e83cb119184ea7e32a1\",\"0xeccf192987704a2cfe51a587aa20b3c88396e498847504b4903c49767914b8d9\",\"0xbc49c6c0d844e7c2d3b7cf2e807335db306f0338517a1e83cb119184ea7e32a1\",\"0xeccf192987704a2cfe51a587aa20b3c88396e498847504b4903c49767914b8d9\",\"0xbc49c6c0d844e7c2d3b7cf2e807335db306f0338517a1e83cb119184ea7e32a1\",\"0xeccf192987704a2cfe51a587aa20b3c88396e498847504b4903c49767914b8d9\",\"0xbc49c6c0d844e7c2d3b7cf2e807335db306f0338517a1e83cb119184ea7e32a1\",\"0xeccf192987704a2cfe51a587aa20b3c88396e498847504b4903c49767914b8d9\",\"0xbc49c6c0d844e7c2d3b7cf2e807335db306f0338517a1e83cb119184ea7e32a1\",\"0xeccf192987704a2cfe51a587aa20b3c88396e498847504b4903c49767914b8d9\",\"0xbc49c6c0d844e7c2d3b7cf2e807335db306f0338517a1e83cb119184ea7e32a1\",\"0xeccf192987704a2cfe51a587aa20b3c88396e498847504b4903c49767914b8d9\",\"0xbc49c6c0d844e7c2d3b7cf2e807335db306f0338517a1e83cb119184ea7e32a1\",\"0xeccf192987704a2cfe51a587aa20b3c88396e498847504b4903c49767914b8d9\",\"0xbc49c6c0d844e7c2d3b7cf2e807335db306f0338517a1e83cb119184ea7e32a1\",\"0xeccf192987704a2cfe51a587aa20b3c88396e498847504b4903c49767914b8d9\",\"0xbc49c6c0d844e7c2d3b7cf2e807335db306f0338517a1e83cb119184ea7e32a1\",\"0xeccf192987704a2cfe51a587aa20b3c88396e498847504b4903c49767914b8d9\",\"0xbc49c6c0d844e7c2d3b7cf2e807335db306f0338517a1e83cb119184ea7e32a1\",\"0xeccf192987704a2cfe51a587aa20b3c88396e498847504b4903c49767914b8d9\",\"0xbc49c6c0d844e7c2d3b7cf2e807335db306f0338517a1e83cb119184ea7e32a1\",\"0xeccf192987704a2cfe51a587aa20b3c88396e498847504b4903c49767914b8d9\",\"0xbc49c6c0d844e7c2d3b7cf2e807335db306f0338517a1e83cb119184ea7e32a1\",\"0xeccf192987704a2cfe51a587aa20b3c88396e498847504b4903c49767914b8d9\",\"0xbc49c6c0d844e7c2d3b7cf2e807335db306f0338517a1e83cb119184ea7e32a1\",\"0xeccf192987704a2cfe51a587aa20b3c88396e498847504b4903c49767914b8d9\",\"0xbc49c6c0d844e7c2d3b7cf2e807335db306f0338517a1e83cb119184ea7e32a1\",\"0xeccf192987704a2cfe51a587aa20b3c88396e498847504b4903c49767914b8d9\",\"0xbc49c6c0d844e7c2d3b7cf2e807335db306f0338517a1e83cb119184ea7e32a1\",\"0xeccf192987704a2cfe51a587aa20b3c88396e498847504b4903c49767914b8d9\",\"0xbc49c6c0d844e7c2d3b7cf2e807335db306f0338517a1e83cb119184ea7e32a1\",\"0xeccf192987704a2cfe51a587aa20b3c88396e498847504b4903c49767914b8d9\",\"0xbc49c6c0d844e7c2d3b7cf2e807335db306f0338517a1e83cb119184ea7e32a1\",\"0xeccf192987704a2cfe51a587aa20b3c88396e498847504b4903c49767914b8d9\",\"0xbc49c6c0d844e7c2d3b7cf2e807335db306f0338517a1e83cb119184ea7e32a1\",\"0xeccf192987704a2cfe51a587aa20b3c88396e498847504b4903c49767914b8d9\",\"0xbc49c6c0d844e7c2d3b7cf2e807335db306f0338517a1e83cb119184ea7e32a1\",\"0xeccf192987704a2cfe51a587aa20b3c88396e498847504b4903c49767914b8d9\",\"0xbc49c6c0d844e7c2d3b7cf2e807335db306f0338517a1e83cb119184ea7e32a1\",\"0xeccf192987704a2cfe51a587aa20b3c88396e498847504b4903c49767914b8d9\",\"0xbc49c6c0d844e7c2d3b7cf2e807335db306f0338517a1e83cb119184ea7e32a1\",\"0xeccf192987704a2cfe51a587aa20b3c88396e498847504b4903c49767914b8d9\",\"0xbc49c6c0d844e7c2d3b7cf2e807335db306f0338517a1e83cb119184ea7e32a1\",\"0xeccf192987704a2cfe51a587aa20b3c88396e498847504b4903c49767914b8d9\",\"0xbc49c6c0d844e7c2d3b7cf2e807335db306f0338517a1e83cb119184ea7e32a1\",\"0xeccf192987704a2cfe51a587aa20b3c88396e498847504b4903c49767914b8d9\",\"0xbc49c6c0d844e7c2d3b7cf2e807335db306f0338517a1e83cb119184ea7e32a1\",\"0xeccf192987704a2cfe51a587aa20b3c88396e498847504b4903c49767914b8d9\",\"0xbc49c6c0d844e7c2d3b7cf2e807335db306f0338517a1e83cb119184ea7e32a1\",\"0xeccf192987704a2cfe51a587aa20b3c88396e498847504b4903c49767914b8d9\",\"0xbc49c6c0d844e7c2d3b7cf2e807335db306f0338517a1e83cb119184ea7e32a1\",\"0xeccf192987704a2cfe51a587aa20b3c88396e498847504b4903c49767914b8d9\",\"0xbc49c6c0d844e7c2d3b7cf2e807335db306f0338517a1e83cb119184ea7e32a1\",\"0xeccf192987704a2cfe51a587aa20b3c88396e498847504b4903c49767914b8d9\",\"0xbc49c6c0d844e7c2d3b7cf2e807335db306f0338517a1e83cb119184ea7e32a1\",\"0xeccf192987704a2cfe51a587aa20b3c88396e498847504b4903c49767914b8d9\",\"0xbc49c6c0d844e7c2d3b7cf2e807335db306f0338517a1e83cb119184ea7e32a1\",\"0xeccf192987704a2cfe51a587aa20b3c88396e498847504b4903c49767914b8d9\",\"0xbc49c6c0d844e7c2d3b7cf2e807335db306f0338517a1e83cb119184ea7e32a1\",\"0xeccf192987704a2cfe51a587aa20b3c88396e498847504b4903c49767914b8d9\",\"0xbc49c6c0d844e7c2d3b7cf2e807335db306f0338517a1e83cb119184ea7e32a1\",\"0xeccf192987704a2cfe51a587aa20b3c88396e498847504b4903c49767914b8d9\",\"0xbc49c6c0d844e7c2d3b7cf2e807335db306f0338517a1e83cb119184ea7e32a1\",\"0xeccf192987704a2cfe51a587aa20b3c88396e498847504b4903c49767914b8d9\",\"0xbc49c6c0d844e7c2d3b7cf2e807335db306f0338517a1e83cb119184ea7e32a1\",\"0xeccf192987704a2cfe51a587aa20b3c88396e498847504b4903c49767914b8d9\",\"0xbc49c6c0d844e7c2d3b7cf2e807335db306f0338517a1e83cb119184ea7e32a1\",\"0xeccf192987704a2cfe51a587aa20b3c88396e498847504b4903c49767914b8d9\",\"0xbc49c6c0d844e7c2d3b7cf2e807335db306f0338517a1e83cb119184ea7e32a1\",\"0xeccf192987704a2cfe51a587aa20b3c88396e498847504b4903c49767914b8d9\",\"0xbc49c6c0d844e7c2d3b7cf2e807335db306f0338517a1e83cb119184ea7e32a1\",\"0xeccf192987704a2cfe51a587aa20b3c88396e498847504b4903c49767914b8d9\",\"0xbc49c6c0d844e7c2d3b7cf2e807335db306f0338517a1e83cb119184ea7e32a1\",\"0xeccf192987704a2cfe51a587aa20b3c88396e498847504b4903c49767914b8d9\",\"0xbc49c6c0d844e7c2d3b7cf2e807335db306f0338517a1e83cb119184ea7e32a1\",\"0xeccf192987704a2cfe51a587aa20b3c88396e498847504b4903c49767914b8d9\",\"0xbc49c6c0d844e7c2d3b7cf2e807335db306f0338517a1e83cb119184ea7e32a1\",\"0xeccf192987704a2cfe51a587aa20b3c88396e498847504b4903c49767914b8d9\",\"0xbc49c6c0d844e7c2d3b7cf2e807335db306f0338517a1e83cb119184ea7e32a1\",\"0xeccf192987704a2cfe51a587aa20b3c88396e498847504b4903c49767914b8d9\",\"0xbc49c6c0d844e7c2d3b7cf2e807335db306f0338517a1e83cb119184ea7e32a1\",\"0xeccf192987704a2cfe51a587aa20b3c88396e498847504b4903c49767914b8d9\",\"0xbc49c6c0d844e7c2d3b7cf2e807335db306f0338517a1e83cb119184ea7e32a1\",\"0xeccf192987704a2cfe51a587aa20b3c88396e498847504b4903c49767914b8d9\",\"0xbc49c6c0d844e7c2d3b7cf2e807335db306f0338517a1e83cb119184ea7e32a1\",\"0xeccf192987704a2cfe51a587aa20b3c88396e498847504b4903c49767914b8d9\",\"0xbc49c6c0d844e7c2d3b7cf2e807335db306f0338517a1e83cb119184ea7e32a1\",\"0xeccf192987704a2cfe51a587aa20b3c88396e498847504b4903c49767914b8d9\",\"0xbc49c6c0d844e7c2d3b7cf2e807335db306f0338517a1e83cb119184ea7e32a1\",\"0xeccf192987704a2cfe51a587aa20b3c88396e498847504b4903c49767914b8d9\",\"0xbc49c6c0d844e7c2d3b7cf2e807335db306f0338517a1e83cb119184ea7e32a1\",\"0xeccf192987704a2cfe51a587aa20b3c88396e498847504b4903c49767914b8d9\",\"0xbc49c6c0d844e7c2d3b7cf2e807335db306f0338517a1e83cb119184ea7e32a1\",\"0xeccf192987704a2cfe51a587aa20b3c88396e498847504b4903c49767914b8d9\",\"0xbc49c6c0d844e7c2d3b7cf2e807335db306f0338517a1e83cb119184ea7e32a1\",\"0xeccf192987704a2cfe51a587aa20b3c88396e498847504b4903c49767914b8d9\",\"0xbc49c6c0d844e7c2d3b7cf2e807335db306f0338517a1e83cb119184ea7e32a1\",\"0xeccf192987704a2cfe51a587aa20b3c88396e498847504b4903c49767914b8d9\",\"0xbc49c6c0d844e7c2d3b7cf2e807335db306f0338517a1e83cb119184ea7e32a1\",\"0xeccf192987704a2cfe51a587aa20b3c88396e498847504b4903c49767914b8d9\",\"0xbc49c6c0d844e7c2d3b7cf2e807335db306f0338517a1e83cb119184ea7e32a1\",\"0xeccf192987704a2cfe51a587aa20b3c88396e498847504b4903c49767914b8d9\",\"0xbc49c6c0d844e7c2d3b7cf2e807335db306f0338517a1e83cb119184ea7e32a1\",\"0xeccf192987704a2cfe51a587aa20b3c88396e498847504b4903c49767914b8d9\",\"0xbc49c6c0d844e7c2d3b7cf2e807335db306f0338517a1e83cb119184ea7e32a1\",\"0xeccf192987704a2cfe51a587aa20b3c88396e498847504b4903c49767914b8d9\",\"0xbc49c6c0d844e7c2d3b7cf2e807335db306f0338517a1e83cb119184ea7e32a1\",\"0xeccf192987704a2cfe51a587aa20b3c88396e498847504b4903c49767914b8d9\",\"0xbc49c6c0d844e7c2d3b7cf2e807335db306f0338517a1e83cb119184ea7e32a1\",\"0xeccf192987704a2cfe51a587aa20b3c88396e498847504b4903c49767914b8d9\",\"0xbc49c6c0d844e7c2d3b7cf2e807335db306f0338517a1e83cb119184ea7e32a1\",\"0xeccf192987704a2cfe51a587aa20b3c88396e498847504b4903c49767914b8d9\",\"0xbc49c6c0d844e7c2d3b7cf2e807335db306f0338517a1e83cb119184ea7e32a1\",\"0xeccf192987704a2cfe51a587aa20b3c88396e498847504b4903c49767914b8d9\",\"0xbc49c6c0d844e7c2d3b7cf2e807335db306f0338517a1e83cb119184ea7e32a1\",\"0xeccf192987704a2cfe51a587aa20b3c88396e498847504b4903c49767914b8d9\",\"0xbc49c6c0d844e7c2d3b7cf2e807335db306f0338517a1e83cb119184ea7e32a1\",\"0xeccf192987704a2cfe51a587aa20b3c88396e498847504b4903c49767914b8d9\",\"0xbc49c6c0d844e7c2d3b7cf2e807335db306f0338517a1e83cb119184ea7e32a1\",\"0xeccf192987704a2cfe51a587aa20b3c88396e498847504b4903c49767914b8d9\",\"0xbc49c6c0d844e7c2d3b7cf2e807335db306f0338517a1e83cb119184ea7e32a1\",\"0xeccf192987704a2cfe51a587aa20b3c88396e498847504b4903c49767914b8d9\",\"0xbc49c6c0d844e7c2d3b7cf2e807335db306f0338517a1e83cb119184ea7e32a1\",\"0xeccf192987704a2cfe51a587aa20b3c88396e498847504b4903c49767914b8d9\",\"0xbc49c6c0d844e7c2d3b7cf2e807335db306f0338517a1e83cb119184ea7e32a1\",\"0xeccf192987704a2cfe51a587aa20b3c88396e498847504b4903c49767914b8d9\",\"0xbc49c6c0d844e7c2d3b7cf2e807335db306f0338517a1e83cb119184ea7e32a1\",\"0xeccf192987704a2cfe51a587aa20b3c88396e498847504b4903c49767914b8d9\",\"0xbc49c6c0d844e7c2d3b7cf2e807335db306f0338517a1e83cb119184ea7e32a1\",\"0xeccf192987704a2cfe51a587aa20b3c88396e498847504b4903c49767914b8d9\",\"0xbc49c6c0d844e7c2d3b7cf2e807335db306f0338517a1e83cb119184ea7e32a1\",\"0xeccf192987704a2cfe51a587aa20b3c88396e498847504b4903c49767914b8d9\",\"0xbc49c6c0d844e7c2d3b7cf2e807335db306f0338517a1e83cb119184ea7e32a1\",\"0xeccf192987704a2cfe51a587aa20b3c88396e498847504b4903c49767914b8d9\",\"0xbc49c6c0d844e7c2d3b7cf2e807335db306f0338517a1e83cb119184ea7e32a1\",\"0xeccf192987704a2cfe51a587aa20b3c88396e498847504b4903c49767914b8d9\",\"0xbc49c6c0d844e7c2d3b7cf2e807335db306f0338517a1e83cb119184ea7e32a1\",\"0xeccf192987704a2cfe51a587aa20b3c88396e498847504b4903c49767914b8d9\",\"0xbc49c6c0d844e7c2d3b7cf2e807335db306f0338517a1e83cb119184ea7e32a1\",\"0xeccf192987704a2cfe51a587aa20b3c88396e498847504b4903c49767914b8d9\",\"0xbc49c6c0d844e7c2d3b7cf2e807335db306f0338517a1e83cb119184ea7e32a1\",\"0xeccf192987704a2cfe51a587aa20b3c88396e498847504b4903c49767914b8d9\",\"0xbc49c6c0d844e7c2d3b7cf2e807335db306f0338517a1e83cb119184ea7e32a1\",\"0xeccf192987704a2cfe51a587aa20b3c88396e498847504b4903c49767914b8d9\",\"0xbc49c6c0d844e7c2d3b7cf2e807335db306f0338517a1e83cb119184ea7e32a1\",\"0xeccf192987704a2cfe51a587aa20b3c88396e498847504b4903c49767914b8d9\",\"0xbc49c6c0d844e7c2d3b7cf2e807335db306f0338517a1e83cb119184ea7e32a1\",\"0xeccf192987704a2cfe51a587aa20b3c88396e498847504b4903c49767914b8d9\",\"0xbc49c6c0d844e7c2d3b7cf2e807335db306f0338517a1e83cb119184ea7e32a1\",\"0xeccf192987704a2cfe51a587aa20b3c88396e498847504b4903c49767914b8d9\",\"0xbc49c6c0d844e7c2d3b7cf2e807335db306f0338517a1e83cb119184ea7e32a1\",\"0xeccf192987704a2cfe51a587aa20b3c88396e498847504b4903c49767914b8d9\",\"0xbc49c6c0d844e7c2d3b7cf2e807335db306f0338517a1e83cb119184ea7e32a1\",\"0xeccf192987704a2cfe51a587aa20b3c88396e498847504b4903c49767914b8d9\",\"0xbc49c6c0d844e7c2d3b7cf2e807335db306f0338517a1e83cb119184ea7e32a1\",\"0xeccf192987704a2cfe51a587aa20b3c88396e498847504b4903c49767914b8d9\",\"0xbc49c6c0d844e7c2d3b7cf2e807335db306f0338517a1e83cb119184ea7e32a1\",\"0xeccf192987704a2cfe51a587aa20b3c88396e498847504b4903c49767914b8d9\",\"0xbc49c6c0d844e7c2d3b7cf2e807335db306f0338517a1e83cb119184ea7e32a1\",\"0xeccf192987704a2cfe51a587aa20b3c88396e498847504b4903c49767914b8d9\",\"0xbc49c6c0d844e7c2d3b7cf2e807335db306f0338517a1e83cb119184ea7e32a1\",\"0xeccf192987704a2cfe51a587aa20b3c88396e498847504b4903c49767914b8d9\",\"0xbc49c6c0d844e7c2d3b7cf2e807335db306f0338517a1e83cb119184ea7e32a1\",\"0xeccf192987704a2cfe51a587aa20b3c88396e498847504b4903c49767914b8d9\",\"0xbc49c6c0d844e7c2d3b7cf2e807335db306f0338517a1e83cb119184ea7e32a1\",\"0xeccf192987704a2cfe51a587aa20b3c88396e498847504b4903c49767914b8d9\",\"0xbc49c6c0d844e7c2d3b7cf2e807335db306f0338517a1e83cb119184ea7e32a1\",\"0xeccf192987704a2cfe51a587aa20b3c88396e498847504b4903c49767914b8d9\",\"0xbc49c6c0d844e7c2d3b7cf2e807335db306f0338517a1e83cb119184ea7e32a1\",\"0xeccf192987704a2cfe51a587aa20b3c88396e498847504b4903c49767914b8d9\",\"0xbc49c6c0d844e7c2d3b7cf2e807335db306f0338517a1e83cb119184ea7e32a1\",\"0xeccf192987704a2cfe51a587aa20b3c88396e498847504b4903c49767914b8d9\",\"0xbc49c6c0d844e7c2d3b7cf2e807335db306f0338517a1e83cb119184ea7e32a1\",\"0xeccf192987704a2cfe51a587aa20b3c88396e498847504b4903c49767914b8d9\",\"0xbc49c6c0d844e7c2d3b7cf2e807335db306f0338517a1e83cb119184ea7e32a1\",\"0xeccf192987704a2cfe51a587aa20b3c88396e498847504b4903c49767914b8d9\",*/",
  "sourcePath": "/Users/dougchenli/truffle/FairTradeExt/contracts/TestHash.sol",
  "compiler": {
    "name": "solc",
    "version": "0.5.16+commit.9c3226ce.Emscripten.clang"
  },
  "schemaVersion": "3.4.1",
  "updatedAt": "2023-10-10T00:34:33.332Z",
  "networkType": "ethereum",
  "devdoc": {
    "methods": {}
  },
  "userdoc": {
    "methods": {}
  }
}